:020000041000EA
:1000000000B5324B212058609868022188439860DF
:10001000D860186158612E4B002199600221596106
:100020000121F02299502B49196001219960352056
:1000300000F044F80222904214D00621196600F024
:1000400034F8196E01211966002018661A6600F04E
:100050002CF8196E196E196E052000F02FF8012189
:100060000842F9D1002199601B49196000215960AB
:100070001A491B48016001219960EB211966A021F2
:10008000196600F012F800219960164914480160C1
:100090000121996001BC002800D000471248134993
:1000A000086003C880F30888084703B5996A0420EC
:1000B0000142FBD001200142F8D103BD02B5186610
:1000C0001866FFF7F2FF186E186E02BD00000240BE
:1000D000000000180000070000035F00212200005C
:1000E000F4000018222000A00001001008ED00E03C
:1000F00000000000000000000000000074B24E7A12
:1001000000200420F7010010C3010010C5010010F9
:10011000C1010010C1010010C1010010C101001097
:10012000C1010010C1010010C1010010C701001081
:10013000C1010010C1010010C9010010CB01001065
:10014000CD010010CD010010CD010010CD01001037
:10015000CD010010CD010010CD010010CD01001027
:10016000CD010010CD010010CD010010CD01001017
:10017000CD010010CD010010CD010010CD01001007
:10018000CD010010CD010010CD010010CD010010F7
:10019000CD010010CD010010CD010010CD010010E7
:1001A000CD010010CD010010CD010010CD010010D7
:1001B000CD010010CD010010CD010010CD010010C7
:1001C00000BE00BE00BE00BE00BE00BE00F04BF888
:1001D000103800BEF2EB8871807200109C72001023
:1001E0003402001090A31AE700202149086006C8D5
:1001F00081F3088810471F48006800282FD10DA4FC
:100200000ECC002902D000F012F8F9E71A491B4A77
:10021000002000E001C19142FCD1194988471949E9
:1002200088471949884700BEFDE701C901C29A42C3
:10023000FBD370479C720010C00000204C030020CC
:10024000287500100000042000000420287500100C
:1002500000100420001004200000000070470B482C
:1002600003F04CFB0047EFF30580C0B2704700007D
:1002700008ED00E0000000D050030020400B0020FB
:10028000D11E00105D030010AD1F00105756000076
:1002900006005250ABB3605350720010060052502B
:1002A000861C030260720010060052505422A29D68
:1002B0007072001005005250DE65F4682875001059
:1002C000F8B5C0460448054B10B5834203D0044B33
:1002D000002B00D0984710BD4C0300204C03002099
:1002E0000000000006480749091A8910CB0F591869
:1002F00010B5491003D0044B002B00D0984710BD17
:100300004C0300204C0300200000000010B5074CF7
:100310002378002B09D1FFF7D5FF054B002B02D026
:10032000044800E000BF0123237010BD50040020EA
:1003300000000000184C0010054B10B5002B03D036
:100340000449054800E000BFFFF7CCFF10BDC046E0
:100350000000000054040020184C001070B588B054
:1003600000F0F4FA7F2300935F3B10220C21A64893
:1003700000F0D8F900220021A44800F043FA02223C
:100380000021A34800F03EFA04220021A14800F019
:1003900039FA06220021A04800F034FA9F4801F003
:1003A0000DFA002000F0B4FA00221E219C4800F053
:1003B00029FA10240CE0E3B2012200927E321021CF
:1003C000002000F0C1FBFA20400001F0F7F90434EE
:1003D0003F2CF0D9914801F0F1F9002000F098FA93
:1003E00000220A218F4800F00DFA01240AE0E2B24F
:1003F00001231F213F2000F02EFCFA20400001F0D5
:10040000DDF903340F2CF2D9844801F0D7F900202C
:1004100000F07EFA00220021834800F0F3F9002466
:1004200013E0E1B208001030C0B22E235B1ADBB239
:100430007022521AD2B201210091010000F0E8FBB3
:10044000FA20400001F0BAF904340E2CE9D97348BF
:1004500001F0B4F9002000F05BFA0022002173489B
:1004600000F0D0F9002409E007237F2200210020BA
:1004700000F004FB6E4801F0A1F90134072CF3D918
:10048000FA25AD00280001F099F9002000F040FAAB
:1004900000220821674800F0B5F9202400942023A9
:1004A00003221421644800F0ABFA009420230322B5
:1004B0004821624800F0A4FA584E300001F07EF95D
:1004C00000942023032214215D4800F099FA00943F
:1004D0002023032248215B4800F092FA300001F00B
:1004E0006DF9280001F06AF9002000F011FA0022ED
:1004F0002321554800F086F900242EE022005349BC
:1005000003A803F0CFF93A2300930C3B28221921CA
:100510004F4800F007F90322002103A800F086F9F4
:100520007F250095202310220C21374800F0FAF88F
:1005300003225A2103A800F079F90095202308220C
:100540000621444800F0EEF80622632103A800F0DB
:100550006DF9C82001F032F90134702CCED93E4833
:1005600001F02CF93D4800F02BFA3D4801F026F946
:10057000002000F0CDF97F2300935F3B10220C2177
:10058000214800F0CFF800F0B9F9002406E0354822
:1005900000F060F9322001F011F90134F423FF3347
:1005A0009C42F4D9002000F0B3F900F0A7F900252F
:1005B0000A2405E000250024322001F0FFF8013470
:1005C0007F2300935F3B10220C210F4800F0AAF814
:1005D000254800F03FF90A2CEED12A001B4903A858
:1005E00003F060F93A2300930C3B282219211848A4
:1005F00000F098F803221A2103A800F017F9782DCB
:10060000D8D001350024D7E7B4540010B45F0010EF
:10061000C05F0010C85F0010D45F0010B80B00006E
:10062000E05F0010E85F0010F05F0010FC5F00105A
:10063000DC05000008600010B45D0010345E00109E
:10064000B45E0010345F0010146000101C600010D5
:10065000584E0010184C0010AC0D0000C460001083
:1006600088130000246000104460001010B5024898
:10067000002101F079F810BD20A1070030B583B04A
:100680006B46D91D0870D02424062025656180237F
:10069000A361A5610122034804F0AEFA656103B0CD
:1006A00030BDC04600C0034070B50A00D024240607
:1006B000202565618023A361A5610100024804F043
:1006C0009BFA656170BDC04600C0034030B583B081
:1006D0006B46D91D0870D02424062025656180232F
:1006E0006361A5610122034804F086FA656103B0E5
:1006F00030BDC04600C0034070B503000F20184055
:100700001B0910241C4307252940573D0D43EDB21A
:10071000FFF7B4FF2000FFF7B1FF2800FFF7AEFF9F
:1007200070BD000030B503AC2478064D2860064843
:100730000170D20805490A70054A1370054B1C70F8
:1007400030BDC046240500203909002038090020AA
:100750002D0900202C090020F0B5C64600B582B056
:100760000F000192214B1A68214B1A60214B1B7814
:10077000C01A214B1A78214B1B785343584300224F
:1007800004E01B490B6801330B6001328242F8D34D
:10079000002398461FE001361548036801330360C3
:1007A0000134164B1B78A34211D97F2FF3D8F1B235
:1007B000F8B2FFF7A1FF0E4D2B681878FFF786FF00
:1007C000F301DB192A6811780D4AD154E3E70137A8
:1007D00001239C46E044084B1B78434502D9019E07
:1007E0000024DEE702B004BC9046F0BD24050020E2
:1007F000180500202D0900203909002038090020A3
:100800002805002070B505000C00160008E0320035
:100810002100FFF7A1FF044B1B781C19E4B201353E
:1008200028780028F3D170BD3909002070B5050083
:100830000C00160008E032002100FFF78DFF044B8A
:100840001B781C19E4B2013528780028F3D170BD5B
:100850003909002070B50500244B1C780134E4B23E
:100860001C70234B1E7804F071F9864209D0214B8D
:1008700019788C421ED000210020FFF73DFF002395
:1008800021E01B4B00221A70F1E701350133184AB1
:1008900012789A42F9D87F23591AC9B228780022CF
:1008A000FFF75AFF124A1378013313700F4B0022DF
:1008B0001A70E0E70023EAE75C1C0F4A105DD05491
:1008C000FFF704FF23007E2BF6D901210020FFF75C
:1008D00013FF802306E05C1C074A105DD054FFF72D
:1008E000F5FE2300FE2BF6D970BDC0461205002090
:1008F0001105002039090020280500200023024AA4
:100900001370024A13707047120500201105002071
:10091000F8B50600002500270CE03000FFF7D6FEF2
:10092000094B5E5501350134E4B263B2002BF4DAB1
:100930000137FFB2072F05D839000020FFF7DCFE92
:100940000024F2E7F8BDC0462805002010B50023BA
:10095000164A1360164A1360052000F0F5F90720C7
:1009600000F0F2F9D0231B0620225A6260325A624C
:100970000121062000F0D0F90121052000F0CCF97A
:100980000121032000F0C8F90A490B4804F0AAF835
:100990001B210A48FFF788FEFFF768FE0020FFF7DB
:1009A000B7FFAF20FFF76AFE10BDC0461C05002050
:1009B0003409002020A1070000C00340C4640010D7
:1009C000F8B50500002600270EE02878FFF77EFE28
:1009D0002A780A4B9A55013501360134E4B263B2E4
:1009E000002BF2DA0137FFB2072F05D839000020BB
:1009F000FFF782FE0024F2E7F8BDC046280500207C
:100A0000F0B5DE464F464646C0B582B006000191BD
:100A10001F000AAB1B789B469146002398461DE0B9
:100A2000013601350134E4B2BC4210D27F2DF7D833
:100A30004B46D9B2E8B2FFF75FFE3078FFF746FECB
:100A40004B46DB015B1931780B4AD154E8E70123AF
:100A50009C46E14443460133DBB298465B46DB08E3
:100A6000434502D9019D0024DEE702B01CBC90463C
:100A70009946A346F0BDC04628050020F0B5D646ED
:100A80004F4680B583B0019091469A460F0010E022
:100A9000FC0164190B4E335DDB433355F9B2E8B208
:100AA000FFF72AFE305DFFF711FE0135A945EFD2B1
:100AB0000137BA4501D3019DF8E703B00CBC91465C
:100AC0009A46F0BD28050020F8B504000D00160078
:100AD00043B2002B01DB3F2900D9F8BDCF08390014
:100AE000FFF70AFE022E11D0032E1CD0012EF4D1E6
:100AF000FF013C1907231D40063BAB40114A105D26
:100B00001843C0B21055FFF7E1FDE6E7FF013C19BD
:100B100007231D40063BAB400A4A105D9843105521
:100B2000FFF7D4FDD9E7FF013C1907231D40063B21
:100B3000AB40044A105D5840C0B21055FFF7C6FDE7
:100B4000CBE7C04628050020F0B5DE4657464E46A6
:100B50004546E0B585B006000F000EA90978019161
:100B6000121AD2B29046DB1BDBB29946002A13D18F
:100B700092464B46002B12D103934346002B11D1D2
:100B80000293C84511D84B46002B15D1CB46029392
:100B90004346C84699460AE001239A46E9E70123FD
:100BA0000393EAE701230293EBE700239B464346C6
:100BB0005C08E4B200250FE04346C846994601238D
:100BC0009B4600230293F2E7029B9C466644F6B2E2
:100BD0005F44FFB20135EDB2454512D8019A3900A4
:100BE0003000FFF771FF4C44E4B2A045ECD8434617
:100BF000E41AE4B25644F6B2039B9C466744FFB243
:100C0000E8E705B03CBC90469946A246AB46F0BD2D
:100C1000F0B585B007000D001E000AAB1C780094EB
:100C20000B000392FFF790FF00943300039A31000A
:100C30003800FFF789FF009433003A00290038009C
:100C4000FFF782FF00943300039802002900FFF7AA
:100C50007BFF05B0F0BDF0B5DE4657464E46C0B549
:100C600084B083468A469146019300254CE04B466A
:100C70005B44DBB25246AF18FFB2019C2200390040
:100C800002931800FFF720FF5A46AB18DBB24E461E
:100C90005644F6B201942200310003931800FFF786
:100CA00013FF5A464946541AE4B2019A390020000B
:100CB000FFF70AFF5A46571BFFB2019A310038006E
:100CC000FFF702FF5246561BF6B2019A3100200090
:100CD000FFF7FAFE52464946541AE4B2019A21003F
:100CE0003800FFF7F1FE019F3A0031000298FFF74C
:100CF000EBFE3A0021000398FFF7E6FE0135EDB266
:100D00004B46013BDBB29946A945B0D204B01CBCAE
:100D100091469A46A346F0BD10B58300084A944612
:100D200063441C6840226240C02414408022520167
:100D300013431C60C000034B9C466044416010BDDF
:100D400004C001400040014010B501238340D0227F
:100D50001206936293610521FFF7DEFF10BD0000CC
:100D6000EFF3108072B6034B1B68002BFBD0BFF370
:100D70005F8F70472C0100D0BFF35F8F024B0022C2
:100D80001A6080F3108870472C0100D070B5050000
:100D90000E001400FFF7E4FFF208AA1815780721E7
:100DA000314001238B402B4205D1DBB22B43137022
:100DB000FFF7E2FF70BD3100200001F019F90000DB
:100DC000034B1B6802201840431E9841C0B2704775
:100DD00000C00640002307E0054A9A189200BFF3BE
:100DE0005F8F0021116001331F2BF5D97047C0467A
:100DF00040000034054A1078431CDBB21370172BF7
:100E000002D9130010221A707047C04690020020C9
:100E100070B505000C00080000F020FD200000F077
:100E200005FE0849200000F045FDFFF7E3FF064BF3
:100E30009C466044800068602C75A400034BE5501C
:100E400070BDC0465D11001040000034EC0400206D
:100E50000A4B1A68EFF3108172B61368002BFCD0AE
:100E6000BFF35F8F054B1B68BFF35F8F00221A60D3
:100E700081F3108840BF002000217047FC0400204F
:100E800010B5002922D003681B7B99421ED8174B4E
:100E90009C466144090183689C4661440C6849682A
:100EA000002A19D003681B7B9A4215D883680F4823
:100EB0008446624412019A181068536802000120A7
:100EC0008B4201D80ED00020C0B210BD084B094A99
:100ED0003B21094801F06EF8054B064A3B210648C4
:100EE00001F068F8A242EFD8EDE7C046FFFFFF0F20
:100EF000B066001038650010B067001010B500290A
:100F00001FD0037B99421CD84B005B18033B04683D
:100F1000A446634400291AD0002A1ED0914222D050
:100F2000002A26D0047BA24223D8046850008018EF
:100F30000338201881701978002920D041701A7068
:100F400010BD104B104A6921104801F033F8104BC6
:100F5000104A70310D4801F02DF80F4B0D4A7121E8
:100F60000A4801F027F80D4B0A4A7221074801F0A0
:100F700021F8044B044A6921044801F01BF81A7057
:100F8000DEE7C04608670010F86400102467001010
:100F90006C6700100465001078670010846700100B
:100FA00070B506000D00140000290BD0002A12D0E5
:100FB000806873689847002806D12A002100300015
:100FC000FFF79CFF200070BD220029003000FFF7D2
:100FD00095FF2C00F6E70C00F4E7000070B5CE4654
:100FE00000B583B00500009201930AAB1C780BABEF
:100FF0001B789946002C28D003685A7B944209D16B
:101000000123002B1BD1002C3DD1200003B004BCD8
:10101000914670BD002C0CD01A7B944209D81A68F6
:1010200063001B19033BD3189B78002BE9D00123E5
:10103000E7E73F4B3F4A69213F4800F0BBFF3F4B8A
:101040003F4A65213F4800F0B5FF03689C7B002CB8
:10105000D9D012D01A7B94420FD862001219033AE9
:1010600019688C46624451789973002900D1D9736C
:101070000023937053701370C5E72D4B2D4A6921DF
:101080002D4800F097FF002C3BD02B681B7B9C4227
:1010900037D82D4BE3181B01AA6894466344009986
:1010A000019A19605A60089A9A60099ADA602E6863
:1010B000002C2CD031D0337B9C422ED863001B19DE
:1010C000033B32689446634400229A705A701A7047
:1010D000717B22003000FFF763FF7073844200D001
:1010E00093E7287D009A019B00F02CFC061E02D09D
:1010F0004B46002B17D00C9B002B00D185E71E70B0
:1011000083E7124B124A3B210E4800F053FF114B6C
:10111000114AA621084800F04DFF054B054A6921F8
:10112000054800F047FF2868210000F055FEE2E77F
:1011300008670010F864001024670010A465001010
:1011400070650010B0670010FFFFFF0FB066001061
:1011500038650010AC67001018650010F0B5DE4669
:1011600057464E464546E0B58BB009908200BA4BD3
:10117000D7583D00A3E0B94BB94A3D21B94800F02A
:1011800019FFB94BB94A3B21B94800F013FF002BB6
:1011900002D1002A00D0BCE00021604600F012FE1F
:1011A000A04219D13268736806920793B3689946D2
:1011B000F3689A464B46002B14D0002C18D02B68AD
:1011C0001B7B9C4214D8631EEA68D35C08931B0205
:1011D000184328610020A4E0A64BA74A8C21A4480C
:1011E00000F0E8FEA54BA44A9021A14800F0E2FEE1
:1011F0009D4BA34A40219E4800F0DCFE00239A4606
:10120000994600208DE02B69002B00D1A9E04345D1
:101210001CD1069A079B10001900921BBB419942F2
:1012200002D804D1904202D901225242D317002B96
:1012300012DB002104910131039102945146019186
:10124000494600912800FFF7C9FE30E08D4B8A4ADD
:101250009F21874800F0AEFE804B814A3D218148A6
:1012600000F0A8FE002F02D1002E00D07CE02A68FA
:10127000002C00D1C7E0537B9C4200D0ACE001239E
:10128000002B00D0BFE0D37B002B00D0C1E0D47393
:10129000002C00D1D0E02B681B7B9C4200D9CBE016
:1012A000013CEB689C46644423780133237000239F
:1012B0002B616A68BFF35F8F13608BF3108800F0B7
:1012C000D9FA002900DA56E7002300240693079490
:1012D0006A68EFF3108772B61368002BFCD0BFF377
:1012E0005F8F2B689C465C7B002C87D000D148E741
:1012F0001B7B9C4200D944E7634BE6183601AB6880
:101300009846464432687368121A8B41002B00DC01
:101310003DE732687368099800F014FB00239A4691
:1013200099466B68BFF35F8F00221A6087F31088BD
:101330004B46002B00D185E0089B1B0223439846B7
:1013400051461800C84706000F006A68EFF3108B7B
:1013500072B61368002BFCD0BFF35F8F002F00DA4A
:1013600051E7002F00DC7DE72B69002B00D17EE7E1
:1013700043451FD100F07EFA02000B1E20DB010066
:10138000180092197B41984202D804D1914202D9A7
:1013900001225242D317002B18DB002104910131A6
:1013A0000391029451460191494600912800FFF7AC
:1013B00015FE7CE7334B304AA2212D4800F0FAFDA0
:1013C000264B274A3D21274800F0F4FD234B244AB1
:1013D0003D21244800F0EEFD002C0ED0137B9C42F2
:1013E0000BD863001B19033B11688C4663449B7840
:1013F000002B00D144E7012342E7244B244A692112
:10140000244800F0D7FD244B244AF721214800F05E
:10141000D1FD002B0AD0117B8B4207D85900CB1885
:10142000033B11688C4663445C7030E7174B184AE5
:101430006921184800F0BEFD0B4B114A40210C48B1
:1014400000F0B8FD002800D039E70BB03CBC904656
:101450009946A246AB46F0BDEC040020CC650010D6
:10146000E0640010E8650010B066001038650010F8
:10147000B06700102C6600108865001044660010EC
:101480004465001050660010FFFFFF0F0867001052
:10149000F8640010246700108C66001028650010A6
:1014A00010B50A4B5B68002B04D00A21084800F0F5
:1014B000DDFA10BD054C2300064A1021206800F01B
:1014C0009FFB03212000FFF7A3FCEEE7940200201E
:1014D000FC040020810E001010B5064B5B68002B49
:1014E00001D0044810BD044B044A5C21044800F0BC
:1014F00061FDC04694020020E466001058650010AB
:10150000B0670010F0B5DE4657464E464546E0B59A
:1015100089B0804616001F00129B994614AB1B78B9
:101520009A461F236B4400221A7033E000280AD029
:1015300042461268127B904205D8421E4146C96855
:101540008A5C934646E0434B434A4021434800F0BF
:1015500031FD32003B00361BAF41BB4202D804D103
:10156000B24202D901267642F717002F12DA3C4B1D
:101570003C4A3D213C4800F01DFD394B394A3D2194
:10158000394800F017FD01246442E517002D4EDBB9
:1015900026002F0043465B68EFF3108572B61C6887
:1015A00062425441E4B2002CF9D1BFF35F8F1F2394
:1015B0006B440493002303930293139B01934B46C4
:1015C000009332003B004046FFF708FD031EADD1FB
:1015D0000022934641464968BFF35F8F00220A60AC
:1015E00085F31088002B28D01F236B441B78002B19
:1015F00002D15A4614020443002B20D05346002B3C
:101600001DD013992000C84704000D0003000B43B0
:101610001DD000299DDB00F02DF90029ADDB241839
:101620004D41A942AFD8B1D1A042AFD9ABE70C4BE5
:101630000C4A3D210C4800F0BDFC0124644220000E
:1016400009B03CBC90469946A246AB46F0BD00248A
:10165000F5E7C046B066001044650010B0670010A2
:10166000CC650010E0640010E8650010F0B587B0AC
:1016700006000F00FEF7F7FD00282AD10624644279
:10168000E517A4197D41BD4202D803D1B44201D966
:1016900000240025002D1FDB0494059500F0EAF8D6
:1016A00000291FDB241A8D41002D21DDFFF714FFD7
:1016B000002302930193254B0093049A059BFFF7A7
:1016C00021FF002831DA3000390000F0DFF807B0E0
:1016D000F0BD1F4800F08CFC1E4B1F4A3D211F48E7
:1016E00000F068FC1B4B1C4A3D211C4800F062FCCA
:1016F000002DE8D1002CD9D1E5E7002300E000233C
:10170000002BE0D1164B1A68EFF3108172B6136804
:10171000002BFCD0BFF35F8F114B1B68BFF35F8FB3
:1017200000221A6081F3108820BF0499059A0D4B9E
:101730005B6A9A42E3D80B48806A884203D29A4295
:10174000DBD00123DCE70123DAE7C046510E0010AD
:10175000E4670010CC650010E0640010E86500103C
:10176000FC0400200040054070B504000D0000F0AE
:1017700081F8002910DB02000B00001969418B423F
:1017800002D804D1824202D901204042C117002967
:1017900008DBFFF76BFF70BD054B064A3D2106488D
:1017A00000F008FC024B034A3D21034800F002FC14
:1017B000CC650010E0640010E865001010B5FA2256
:1017C00092000023002102F063FFFFF7CDFF10BD60
:1017D00070B5EFF305833F2018401038EFF3108405
:1017E00072B6194B1B68002BFBD0BFF35F8F012330
:1017F00019008140154A5163154A12781500C540F9
:101800002B4214D0114B5D6A8300124E9B599D42AE
:1018100006D38300104D5B598A430D490A7007E0D7
:101820000A4A031D9B0099589950002300E00023A9
:10183000BFF35F8F044A0021116084F31088002BEE
:1018400000D0984770BDC046280100D00040054038
:1018500014050020000500206C04002010B50100D4
:10186000024A0348FFF792FA10BDC04650680010C4
:1018700010050020044B596A00E01900024B986AD9
:101880005B6A9942F9D1704700400540084B5B6A9A
:1018900001E0074B5B6A8B42FBD301E0044B5B6AC0
:1018A0008B4203D1024B9B6A8342F7D37047C046F9
:1018B0000040054070B504000D00EFF3108672B6CD
:1018C0001B4B1B68002BFBD0BFF35F8F002D1CD080
:1018D000200000F01BFD174B98420BD01900200090
:1018E00000F01CFD0121200000F008FD0123A340B1
:1018F000114A1360A400114BE550BFF35F8F0C4BEE
:1019000000221A6086F3108870BDA2000B4B0021E4
:10191000D1500122A2400A490B7893430B7005492C
:10192000200000F025FD0021200000F0E7FCE4E7A6
:10193000280100D0D1170010386005406C04002049
:1019400014050020F0B5DE4600B584B00500140093
:1019500001921E000293FFF78DFF03948E422CD953
:10196000EFF3108B72B6294B1B68002BFBD0BFF333
:101970005F8F274A17780124AC40E3B23B431370D2
:10198000244B5C632A1D92000199D150AA00224980
:10199000029850501B6A23421BD11E4B1B6C2342E2
:1019A00011D00020BFF35F8F184B00221A608BF319
:1019B000108804B004BC9346F0BD8E4201D184422D
:1019C000CED80120F5E7154B154AC121154800F086
:1019D000F1FAFFF74FFF8E4214D802D1039B8342E6
:1019E00010D80B4B1B78BB420ED00A4B1C625C63B9
:1019F0001F222A40012393400B4A1360044B1F709F
:101A00000120CFE70020CDE70120CBE7280100D05F
:101A100014050020004005400005002074680010F7
:101A2000346800109868001080E200E010B5EFF311
:101A3000108472B60A4B1B68002BFBD0BFF35F8F7C
:101A400001238340074A136207490A789A430A70C0
:101A5000BFF35F8F024B00221A6084F3108810BD21
:101A6000280100D00040054014050020024B9C4690
:101A700061448900016070474000003470B5040083
:101A80000D00FFF7B7F901002000FFF7EFFFFF237C
:101A900023716571BFF35F8F70BD10B50021FFF733
:101AA000EDFF10BD10B5FF21FFF7E8FF10BD0000EE
:101AB00010B500291FD0037B99421CD84B005B183E
:101AC000033B0468A446634400291AD0002A1ED0B0
:101AD000914222D0002A26D0047BA24223D8046857
:101AE000500080180338201881701978002920D000
:101AF00041701A7010BD104B104A6921104800F057
:101B000059FA104B104A70310D4800F053FA0F4B40
:101B10000D4A71210A4800F04DFA0D4B0A4A722114
:101B2000074800F047FA044B044A6921044800F0D2
:101B300041FA1A70DEE7C04608670010AC69001071
:101B4000246700106C670010B869001078670010F7
:101B50008467001070B506000D00140000290BD03A
:101B6000002A12D0806873689847002806D12A009E
:101B700021003000FFF79CFF200070BD22002900EB
:101B80003000FFF795FF2C00F6E70C00F4E70000AB
:101B900010B50023437301338373037BC3730123A5
:101BA000027B9A4214D9002B0CD0027B934209D8B5
:101BB0005A00D218033A01688C4662440133DBB202
:101BC0005370EDE70B4B0C4A69210C4800F0F2F919
:101BD000002A09D0924207D8016853009A18033AA4
:101BE0008A180023537010BD024B034A6921034831
:101BF00000F0E0F908670010AC69001024670010DD
:101C000010B5017342608360FFF7C2FF10BD000092
:101C100070B50400002901D1080070BD002934D03E
:101C2000037B994231D84B005B18033B0268944612
:101C300063445A78002AEFD02DD0037B9A422AD8E9
:101C400053009B18033B0068844663445D78002082
:101C50005870002925D0237B994222D84B005B186D
:101C6000033B206884466344002058702000FFF73F
:101C700071FF060029002000FFF7CAFF02003100B3
:101C80002000FFF767FF0100C6E7094B094A6921F9
:101C9000094800F08FF9064B064A6921064800F012
:101CA00089F9034B034A6921034800F083F9C046D0
:101CB00008670010AC6900102467001070B50500BB
:101CC0000C001600002928D02DD0037B99422AD879
:101CD0004B005B18033B0268944663445A78002A21
:101CE00027D19A78002A2AD11978FFF791FF0300AB
:101CF000002E03D0EA7B002A27D1EC73002B37D1CA
:101D0000002C49D02B7B9C4246D82A6863001C19C2
:101D1000033C14190023637070BD224B224A382102
:101D2000224800F047F9224B224A6921224800F05C
:101D300041F9224B1C4A3A211C4800F03BF9204B48
:101D4000194A3B21194800F035F9002A0AD0297BAD
:101D50008A4207D851008A18033A29688C4662449F
:101D60005470CAE7124B134A6921134800F022F954
:101D7000002B0BD02A7B934208D843001B18033B4F
:101D80002A689446634400229A70B9E7084B094ACE
:101D90006921094800F00EF9054B064A69210648F9
:101DA00000F008F9206A0010CC690010286A0010C1
:101DB00008670010AC690010246700105C6A00100E
:101DC000846A001070B504000A00457B2900FFF703
:101DD00075FF6073280070BD10B50400002966D03F
:101DE000437B8B420ED0002911D0037B99420ED841
:101DF0004B005B18033B0268D0188378002B0CD192
:101E0000002055E00121FFF7DDFF012050E0294BC4
:101E1000294A6921294800F0CDF8002B1FD0227BE8
:101E200093421CD85A00D318033B2268D218137867
:101E30008B421AD0002B1BD0227B934218D85A0019
:101E4000D318033B2268D21853788B4216D0002B4C
:101E5000F0D11B4B1B4A67211B4800F0ABF8154B18
:101E6000154A6921154800F0A5F84378137007E07A
:101E7000104B114A6921114800F09CF843785370C7
:101E800000238370437001222000FFF717FF020038
:101E9000617B814205D02000FFF75CFE607301206A
:101EA00006E00A4B074A6D21074800F083F800203E
:101EB00010BDC04608670010AC6900102467001010
:101EC000F8690010E0690010286A0010006A00102C
:101ED00070B5264B264A1A60264B274A1A60274BB4
:101EE0009A68254B9343FAD1254C01E008CC9847DA
:101EF000244B9C42FAD300F011F91E4B224A1A607F
:101F00001E4B9B68DB43DB01FAD1204B40229A67D2
:101F10005A671A67DA661E4C03E02000FFF7BDFD22
:101F200008341C4B9C4206D26379002BF5D020006C
:101F3000FFF7B8FDF4E7184CA168184DC02228003F
:101F400002F066FCA560FEF78EF9002800D000BE06
:101F5000FEF740FF00F072FBFFF7A2FA104C01E021
:101F600008CC98470F4B9C42FAD370BD00E000406C
:101F7000BFCDFBFE00F00040FE7F3C0000C00040F3
:101F80003803002048030020FFFFFF0100F001405C
:101F9000300300203803002000ED00E000000020A6
:101FA000480300204C03002000BEFDE710B5FFF7FA
:101FB000FBFF000010B582B00C001900002A0CD005
:101FC000084B002A0BD00192009323000200064820
:101FD00002F032FD0120FFF7E7FF044BF1E7034A6F
:101FE000F1E7C046A86A0010B86A0010B46A001091
:101FF0000FB400B583B0084802F0EEFC049B002B40
:1020000007D005A90191180002F0F4FC034802F082
:10201000E3FC0120FFF7C8FFE86A0010F86A00102F
:10202000F0B5DE46574680B583B007000E009246F5
:102030000A9A93424CD3190E01911B021800009387
:102040000A9A002301F0F0FC05007B00DB199C00DC
:102050002D4B9C4664446368834200D260603B1F02
:10206000DBB29B46012B39D9C0239B01234380223D
:1020700012011A60BB00254A9958002905D0506901
:1020800001F090FC01300138FDD153465B0122681C
:102090005340E022134080225201224313605B46EA
:1020A000012B26D980239B012343802212011A6031
:1020B00065602A0000230098019901F0B5FCBF007B
:1020C000124BF850012003B00CBC92469B46F0BD69
:1020D0000F4B104A2D211048FFF76CFF012EC3D182
:1020E000C0239B01234303221A60A368DB07FCD5AE
:1020F000CBE72168714003230B401360A3680122E2
:10210000B2401A42FAD0CDE7008000407C040020A3
:102110000C6B0010FC6A0010206B001030B583B00F
:102120000C2000F023FBFEF74BFE00280DD000230F
:1021300004E099002D4A2E4888500133092BF8D924
:102140002A4B2C4A5A6203B030BD2B4B00229A67AF
:1021500000F014FB294B01221A60274B5B6C012B0A
:10216000FBD1274B03221A60234B9B6B012BFBD126
:10217000022400940533234A0121234800F06AFA1F
:1021800000940523214A0121214800F063FA214BE4
:102190000093002202210420FFF742FF1E4D00950C
:1021A0002B00002201210520FFF73AFF104C00947C
:1021B0002300002200210720FFF732FF00942300B4
:1021C000002200210820FFF72BFF0A4B0093230079
:1021D000002200210920FFF723FF00952B00002299
:1021E00000210620FFF71CFFADE7C0467C0400205D
:1021F000006CDC021BB70000008000403CB00040D7
:1022000030B00040002F68590080024000389C1C0C
:1022100000C00240001BB700405973078000014B0B
:10222000C05870477C040020074B9B68103080002A
:102230001950BFF35F8FBFF35F8F044B002119600C
:1022400082F310887047C04600ED00E0240100D002
:1022500010B5091A04394808090B05D14005400D8D
:10226000044B184380B210BD034B044A8C21044830
:10227000FFF7A0FE00E0FFFF546D00107C6B001024
:10228000646D001010B5091A04394C08090B08D107
:102290004905490D064A11430180064B23434380FB
:1022A00010BD054B054A94210548FFF783FEC04643
:1022B00000F0FFFF00F8FFFF546D0010886B001066
:1022C000646D001001238340034A10681840431EC8
:1022D0009841C0B27047C04600E100E0002902D139
:1022E000034B18607047034B1860034B1860F9E705
:1022F00080E100E080E200E000E100E010B50123B1
:1023000083401800FFF7EAFF10BD0000024B9B68F6
:1023100010308000C058704700ED00E070B5040038
:102320000D00EFF3108672B60C4B1B68002BFBD030
:10233000BFF35F8F2000FFF7E9FF094B984201D000
:10234000A84205D1320029002000FFF76DFF70BDC3
:10235000044B054A70210548FFF72CFE240100D0EC
:10236000CD0100101C6D0010606B0010646D00103A
:10237000F0B5CE4600B584B001900D00EFF31086A5
:1023800072B65A4B1B68002BFBD0BFF35F8F584BC4
:102390009A68019C1034A300D758564B9F4200D135
:1023A0009FE0AF4200D19EE00297534BFB1A2F2BC8
:1023B00008D9320039000198FFF736FF04B004BC99
:1023C0009146F0BD0198FFF77DFF03900021019831
:1023D000FFF794FFBFF35F8FFDF745FF002801D0A3
:1023E00084421AD10123029C9C43230042495B1A78
:1023F0005B414B495943090D4BB29C460023A168F0
:10240000A94212D00622A256002A0DDB53009B18C7
:102410009A002300384CA418F1E72021374B384AA2
:10242000FF313848FFF7C6FD2300A94252D10622EA
:10243000A2569146002A38DB52004A4491002E4BA6
:102440005B189A68A260DA79E27106229A56A27144
:102450009B795BB2002B12DABD200002A0804B46B4
:102460005B004B449A00244B9B18274A11789971C2
:102470004B46137003990198FFF740FF99E7201D21
:102480001D4A8B181A1D9B88D90A1C2907D159058A
:102490004915023149005118FFF7DAFEDEE71B4B00
:1024A0001B4A9A211748FFF785FD00280DD1002B04
:1024B00009D0FF229A71174A9A80134B1A78A27199
:1024C00062461A70D6E70B4FF7E7201D1249FFF757
:1024D000D9FECFE7AA21114B094A49000948FFF765
:1024E00069FD044F65E7034F63E7C046240100D050
:1024F00000ED00E0CD010010BC020020F06C0010E7
:10250000B06B0010646D001013050020A46C001067
:10251000A06B001000BDFFFFF6020020146D00103C
:10252000AAAA000010B5032304009C43064A94465F
:10253000644422681840C000FC3383409A438140C1
:102540001143216010BDC04600E400E0F8B504006E
:10255000012606432D4BF31A2F2B28D8FDF783FEB7
:1025600000282BD0EFF3108572B6294B1B68002B87
:10257000FBD0BFF35F8F230024495B1A5B412E49D8
:102580005943090D49B2234B9B6880001B58B34245
:102590001BD00023032B32D85A00D21890001B4ABC
:1025A0001218927952B28A421FD00133F2E7722197
:1025B000194B1A4AFF311A48FFF7FCFCBA21194B94
:1025C000164A49001648FFF7F5FC124B9B68164A5D
:1025D0001A50164B1A78A2711970BFF35F8F0C4B0B
:1025E00000221A6085F31088F8BD08485A00D718F1
:1025F000BE008619FF27B7710D4BB380E9E786212E
:102600000C4B064AFF310648FFF7D4FCBC02002001
:10261000240100D000ED00E0BC6C0010C46B001081
:10262000646D0010E46C0010CD0100101305002053
:1026300000BDFFFFF8690010AAAA000010B5002431
:1026400004E080212000FFF76DFF01341F2CF8D932
:1026500010BD0000F0B583B00400019117001E000A
:102660000C2001F09FF905004201121A93019B1AF8
:10267000DB001B189901380001F094F90200103AB0
:1026800098235B009A4232D8731E062B35D8089BDC
:10269000013B062B31D8089B9E4234D33F09AF4201
:1026A00037D33304089A16031E432368002B36DB06
:1026B000244B9C4242D080214901234B1960234B7B
:1026C0001960234A92680B009343FAD1019B23605F
:1026D000A060221DC0239B01134321221A6022689F
:1026E000002AFCDAE66008221A6003B0F0BD194B3C
:1026F000194A16211948FFF75DFC194B164A192192
:102700001648FFF757FC174B134A1F211348FFF7D2
:1027100051FC154B104A22211048FFF74BFC226850
:102720003F231340019A9342C2D1A3681B051B0D9E
:102730008342BDD1E368002EBAD1D6E7802189015A
:10274000BBE7C04600C0024000E0004000F000408F
:1027500000C00040AC6D0010A06D0010C86D0010EE
:10276000046E0010506E0010686E001080239B00F5
:102770001843014BD862704700800540064BAA22DF
:1027800012011A602F22DA60044B054A1A60024BCC
:102790005B68002BFBDA704700400240006002409B
:1027A00000B0FA009A4200D288547047704710B5C2
:1027B000002802D00B684968984710BD002307E045
:1027C0009A00D3185A004B1C03600B789B18303BBF
:1027D00001680A78303AD2B2092AF1D91800704754
:1027E000F0B5D6464F464646C0B582B005000091CA
:1027F000904601930A9B99460B9C0C9E0D9B9B0750
:1028000012D04E460C9B994618E0541C019B00992F
:102810002020A84701372200B742F6D354460C9631
:102820004E460C9B994609E02700A246F4E7013C7E
:10283000571C305D019B0099A8473A00002CF6D147
:102840004E460D9B9B070AD5474605E0541C019B4D
:1028500000992020A8472200D31BB342F6D31000D2
:1028600002B01CBC90469946A246F0BDF0B5CE46DB
:10287000474680B587B0049205930E9E0F9C10AD1D
:102880002B789946129F139B149DAA071CD4002BEA
:102890000CD0EA070AD54A46002A02D10C322A4255
:1028A00004D0013B02E0302232550134BC4205D253
:1028B0001F2CF8D902E0302232550134EA0703D543
:1028C0009C4201D21F2CF6D9EA0615D56A0505D41B
:1028D000002C03D0BC421CD09C421AD0119A102A62
:1028E00023D0119A102A28D0119A022A2DD01F2CF9
:1028F00002D83027375501341F2C2FD84A46002ADA
:1029000029D16A0737D42A0728D52027375501341B
:1029100024E0671E002F06D0119A102A01D03C0037
:10292000DCE7023CDAE73C00D8E7AA06D9D41F2C42
:10293000D7D8782737550134D9E7AA06D4D51F2C24
:10294000D2D8582737550134D1E71F2CCFD862276A
:1029500037550134CBE72D273755013403950293C2
:1029600001940096059B049AFFF73AFF07B00CBC50
:1029700090469946F0BD2B2737550134EEE7F0B568
:10298000C64600B594B0089009910A920B931AAB11
:1029900010CB1B7898461F9D002C01D110239D431E
:1029A0008027FF002F4016D0002C20D0002712E0F7
:1029B000AA061AD54121C918C9B20A39C9B27E1C62
:1029C0000CABD9551C99200000F0ECFF041E0FD071
:1029D0001F2E0DD837001C99200000F0E3FFCBB26A
:1029E000092BE5D83033D9B2E9E76121E3E70026C6
:1029F00006951E9B05931D9B04931C9B03934346C6
:102A0000029301960CAB00930B9B0A9A09990898C4
:102A1000FFF72CFF14B004BC9046F0BDF0B5D646CD
:102A20004F4680B599B00C900D910E920F93209C5B
:102A3000219D22AB1B789A46249B0A93259B0B93DE
:102A4000289B994623002B4303D110334A469A43CF
:102A500091468026F6004B461E4007D023002B43AC
:102A600031D0002637004E4609941BE037004E4611
:102A7000099417E0B20621D54122D218D2B20A3AFF
:102A8000D2B27C1C10ABDA550A9A0B9B099829002C
:102A900000F0CAFF09900D000B00034315D01F2C56
:102AA0000ED827000A9A0B9B0998290000F0BCFF5A
:102AB000D3B2092BDED83033DAB2E2E76122DCE7A9
:102AC0002700B14603E0002701E02700B1464B464E
:102AD0000693279B0593269B04930A9B03935346D7
:102AE0000293019710AB00930F9B0E9A0D990C98CF
:102AF000FFF7BCFE19B00CBC91469A46F0BD000031
:102B0000F0B5DE4657464646C0B592B008900691ED
:102B1000099207931A9C1B9D22002B00200029007C
:102B200001F00FFA002800D0EAE001225242D34B14
:102B30002000290001F000FA002800D0E0E0012286
:102B40005242CF4B2000290001F0E0F9002800D0CC
:102B5000D6E0002200232000290001F0D7F9002848
:102B600000D0E3E022002B000A920B938023DB00CD
:102B70001E9A1A409246131E01D106331C930A98DE
:102B80000B9902000B000C920D9303000A00024304
:102B900000D1D3E00A00100D4005400DB94EB446F7
:102BA00060441203120B1E00B74B13431F0001F0C9
:102BB000DBF9B64AB64B01F066F9B64AB64B01F0FE
:102BC0003BF90C900D910022B44B3000390001F01C
:102BD0002AF9B34AB34B01F056F902000B000C98E6
:102BE0000D9901F029F901F0D7F9804601F0BCF9FF
:102BF000AD4AAE4B0C900D9101F045F90022AC4B63
:102C000001F01AF901F0C8F90700AA4AAA4B0C987A
:102C10000D9901F038F90C900D91380001F0A4F9EC
:102C2000A64AA74B01F02FF902000B000C980D9952
:102C300001F0F9F802000B001090119101F023F956
:102C40000E900F919F4BFB181B050D9300230C93C7
:102C5000109E119F32003B003000390001F0ECF86B
:102C60001090119132003B0000208021C90501F035
:102C7000DAF806000F000022934B0E980F9901F02E
:102C8000E4F80022914B01F0D7F802000B000E98F7
:102C90000F9901F0DAF800228D4B01F0CDF8020017
:102CA0000B000E980F9901F0D0F802000B003000D5
:102CB000390001F0C1F802000B001098119901F0E1
:102CC000C4F80022704B01F0B7F80C9A0D9B01F08C
:102CD000DAF806000F000C900D910A9A0B9B01F098
:102CE0002BF900282CD001235B429C46E0440022B3
:102CF000764B3000390001F0A8F80C900D911FE0E0
:102D00001E9B04931D9B03931C9B029322002B008C
:102D100000920193079B099A0699089800F002F91E
:102D200012B01CBC90469A46A346F0BD0A9480237C
:102D30001B069C46AC4463460B9317E7002398465A
:102D400043466333C62B22D804271E9B1B052AD576
:102D50000C9A0D9B1900114311D05E4A5E4B0A98E4
:102D60000B9901F0E1F8002800D1BBE000225B4B99
:102D70000A980B9901F0CAF8002800D1B2E01C9B18
:102D8000434506DD42469E1A731E1C9303E0052749
:102D9000DBE700231C938023DB001E9A1A431E925C
:102DA0000027002398461D9B9F4200D3A6E0DB1B13
:102DB0009B4602231E9A1A40924603D0002F01D050
:102DC00000239B464346002B07D00C9A0D9B0A9884
:102DD0000B9901F03AF80A900B9100220023200091
:102DE000290001F093F8002800D08AE03C4B1E9A9D
:102DF000134004935B4603931C9B02930A9B0B9C1A
:102E000000930194079B099A0699089800F08AF8A4
:102E1000002F00D184E71E9B9B0600D47DE0452453
:102E2000451C079B020006992000089CA0474046CD
:102E3000C21781185140C30F7A1E052005900492D5
:102E4000002203920A32029201930091079B2A000A
:102E500006992000FFF793FD5346002B00D15FE752
:102E60000200089D099C131B1D998B4257D2561CCA
:102E7000079B06992020A8473200F4E7FFFFEF7F69
:102E8000FFFFEFFF01FCFFFF0000F03FFB799F50C9
:102E90001344D33FB3C8608B288AC63F0000F83F75
:102EA00061436F63A787D23F71A379094F930A40AB
:102EB0000000E03F1655B5BBB16B0240EF39FAFE9A
:102EC000422EE63FFF03000000002C40000024409B
:102ED000000018402D431CEBE2361A3F80842E413F
:102EE000FFF7FFFF1C9B002B00D15CE75346002B34
:102EF00000D158E71C9B013B1C9354E700239B46E1
:102F000057E70A9C0B9D220029008020000684467A
:102F100061440B000A920B9368E7652480E7100078
:102F2000FEE6C046F0B5D646474680B597B0069057
:102F3000079108920993209F1E9A1F9B1000190069
:102F400000F0FFFF00282AD101225242BB4B1E98FD
:102F50001F9900F0DBFF002830D101225242B84B0C
:102F60001E981F9900F0E8FF00283AD00423229A07
:102F7000134032D0B34A002B31D10323229903915D
:102F80002199029101930092099B089A079906984A
:102F9000FFF726FC17B00CBC90469A46F0BD229B6A
:102FA0000393219B029303230193A74B0093099B57
:102FB000089A07990698FFF713FCEBE7229B039307
:102FC000219B029304230193A04B0093099B089A31
:102FD00007990698FFF704FCDCE79D4ACBE704233A
:102FE000CCE700229B4B1E981F9900F0A5FF0028FC
:102FF00017D10022984B1E981F9900F087FF0028D8
:103000000FD1002200231E981F9900F07FFF002897
:1030100017D100239A46229B5B0500D47DE0002651
:103020001FE0229B0493219B039302971E9B1F9CEE
:1030300000930194099B089A07990698FFF760FD91
:10304000A8E71E9A1F9B0020002100F0ECFE1E90B6
:103050001F9101239A46DEE70EAB30229A55013FBD
:1030600001361F2E01D8092FF6D81E981F9900F09F
:1030700093FF040000F078FF02000B001E981F99D8
:1030800000F0D1FEFA00754B9B181A685B680C9231
:103090000D9300F0F8FE0A900B9100F0A1FF0500DF
:1030A00000F05EFF02000B000A980B9900F0BBFED7
:1030B0000A900B9100226A4B00F03EFF00282ED0B0
:1030C0000135280000F04CFF02000B000C980D9910
:1030D00000F022FF002801D001340025002F2CD160
:1030E000200000F041FF02000B001E981F9900F025
:1030F0009AFE00225A4B0A900B9100F007FF00281D
:1031000041D10022564B0A980B9900F015FF002878
:1031100039D1E30737D5013435E006277FE70022B0
:103120004F4B0A980B9900F0F1FE0028D6D1002DE4
:1031300001D0EB07D2D50135D0E70A941F2E10D865
:10314000013F0A21280000F02DFC741C30310EAB29
:1031500099550A21280000F025FC051E25D02600DF
:10316000ECE70A9C04E00EAA302191551F000136BD
:103170001F2E02D87B1E002FF5D11F2E03D80EABB9
:103180002E229A5501361F2E14D80A21200000F055
:10319000E1FB751C30310EAB99550A21200000F07F
:1031A000D9FB041E05D02E00EDE7A0460A9C46463A
:1031B000DEE72E000323229A1340012B16D01F2E88
:1031C00006D85346002B28D00EAB2D229A55013637
:1031D000229B0393219B029301960EAB0093099BC4
:1031E000089A07990698FFF7FBFAD3E6219B002B74
:1031F0000DD05346002B02D10C33134207D0219B34
:10320000013B219303E00EAB30229A550136219BFE
:103210009E42D4D21F2EF6D9D1E7229B5B0704D55C
:103220000EAB2B229A550136D2E7229B1B07CFD536
:103230000EAB20229A550136CAE7C046FFFFEFFFCA
:10324000FFFFEF7F6470001070700010747000104A
:103250006C70001065CDCD4165CDCDC18070001082
:103260000000E03FF0B5DE4657464E464546E0B525
:1032700095B006000B9115001393002900D1FCE2D4
:103280000027139B1878002800D1F8E2252809D0E0
:103290007C1C2B003A000B99B047139B013313930E
:1032A0002700EEE70133139300241DE00B00303BB1
:1032B000DBB2092B37D92A293AD000239A46139B2F
:1032C0001A782E2A44D000230C93139A1378683B63
:1032D000D9B2122900D980E08B00D049CB589F4643
:1032E00001231C4301321392139A11780B00203BE7
:1032F000D8B21028DAD88300C948C3589F460223A1
:103300001C4301321392EFE704231C430132139252
:10331000EAE708231C4301321392E5E710231C431C
:1033200001321392E0E713A8FFF748FA8246C6E796
:103330001E9B1A1D1E921B68002B04DB9A46139BD2
:1033400001331393BBE7022214435B429A46F6E72C
:103350008022D20014435A1C13925A781300303B37
:10336000DBB2092B04D92A2A07D000230C93ACE73F
:1033700013A8FFF723FA0C90A7E71E9B1A1D1E92B5
:103380001B68002B04DB0C93139B013313939CE706
:103390000023F8E780235B002343511C13915278EC
:1033A0006C2A01D01C0018E0C0239B001C43013193
:1033B000139112E080232343511C13915278682A01
:1033C00001D01C0009E0C0231C430131139104E02B
:1033D00080235B001C4301321392139B1878030077
:1033E000253BDAB2532A00D93DE293008D4AD358E7
:1033F0009F4680239B001C4301321392EDE78023FC
:103400005B001C4301321392E7E778280AD0582862
:103410003BD06F283CD062283DD010239C43063B14
:103420009C4601E010239C46582837D0692803D0D9
:10343000642801D00C229443630501D501229443F2
:1034400069282ED064282CD0A30500D5A5E0E3057B
:1034500000D5BFE0630600D4D2E01E9A111D1E9174
:103460001168FF220A400594534604930C9B039372
:10347000634602930023019300922B003A000B99BC
:103480003000FFF77CFA07002BE010239C46CBE7C7
:1034900008239C46C8E702239C46C5E72022144324
:1034A000C4E7A30521D4E30551D4630668D51E9A69
:1034B000111D1E911168FF220A40D317D1185940DF
:1034C000D20F0594534604930C9B039363460293D7
:1034D000019200912B003A000B993000FFF74FFA50
:1034E0000700139B01331393CBE61E9BDA1D0721C4
:1034F0008A43110008311E91116853689846DB1702
:1035000010931193109A119B100048400E901900CF
:10351000404641400F910E980F99801A99410E90A4
:103520000F914346DA0F0894534607930C9B06937A
:1035300063460493002305930292009001912B00AF
:103540003A000B993000FFF769FA0700C9E71E9AA5
:10355000111D1E911268D317D1185940D20F05942E
:10356000534604930C9B039363460293019200918C
:103570002B003A000B993000FFF701FA0700B0E783
:10358000230605D51E9A111D1E910023D25E94E7D5
:103590001E9A111D1E9112688FE71E9BDA1D0721CE
:1035A0008A43110008311E915368126800920193FA
:1035B00000220894534607930C9B0693634604939A
:1035C000059202922B003A000B993000FFF726FA81
:1035D000070086E71E9A111D1E911368009305943B
:1035E000534604930C9B0393634602930023019379
:1035F0002B003A000B993000FFF7C1F9070070E784
:10360000230606D51E9A111D1E9112681204120C73
:1036100029E71E9A111D1E91126824E7846E00107E
:10362000D06E0010146F001046281AD01E9B07336E
:10363000072293431A0008321E921A685B680092B0
:1036400001930494534603930C9B02932B003A007E
:103650000B993000FFF766FC0700139B01331393AF
:103660000FE620231C43E1E7672801D0472802D159
:1036700080231B011C43452801D0472801D120236A
:103680001C431E9B0733072293431A0008321E92E5
:103690001A685B68009201930494534603930C9B51
:1036A00002932B003A000B993000FFF729FA07002C
:1036B000139B01331393E4E502232340994622D060
:1036C000012398461E9B1A1D1E927C1C18782B0005
:1036D0003A000B99B0474B46002B1AD1139B01338C
:1036E00013932700CDE5571C0C9B0B992020A8476E
:1036F00023003A005C1C9E42F5D8B2461700A04653
:103700002E000C9DDEE701233A000C95350056464D
:10371000F0E7220043460C953500564606E0571C5C
:103720000C9B0B992020A84723003A005C1C9E426A
:10373000F5D814002E000C9DD0E71E9B1A1D1E927A
:103740001B689B460C9B002B21D1012252425B46F9
:1037500001E001330A001978002902D0511E002A25
:10376000F7D15A469B1A98468023DB00234099469E
:1037700003D00C9B984500D998460223234012930E
:1037800007D03A005C4637004E460D951FE00C9A74
:10379000DDE73A004346370056460D9506E0551CD6
:1037A0000D9B0B992020B84723002A005C1C9E42E9
:1037B000F5D8B2463E00A0465C4637004E4606E0CD
:1037C0000C930134551C0D9B0B99B8472A002078A7
:1037D000002805D0002EF4D00C994B1E0029EFD103
:1037E0003E0017000D9D129B002B03D1139B01334C
:1037F000139346E543460C953500564606E0571CA4
:103800000C9B0B992020A84723003A005C1C9E4289
:10381000F5D817002E000C9DE8E7212323431E9ABC
:10382000111D1E91126800920593082304930C9BAE
:10383000039310230293002301932B003A000B996A
:103840003000FFF79CF80700139B0133139318E532
:103850007C1C2B003A000B992520B047139B0133A9
:10386000139327000DE57C1C2B003A000B99B04701
:10387000139B01331393270003E5094E00E5AF4284
:103880000CD36A1E2B000B990020B047380015B0EE
:103890003CBC90469946A246AB46F0BD3A00F1E7E3
:1038A000AD2700100EB410B585B0010007AC08CCF0
:1038B00003940122009452420348FFF7D3FC05B061
:1038C00010BC08BC03B01847A527001000B585B090
:1038D000029003910121009313004A4202A9024879
:1038E000FFF7C0FC05B000BDAF2700100148042160
:1038F000014B1847100300201D39001010B50100BE
:1039000018231B8814221088984710BD10B5010099
:1039100018231B8816221088984710BDF0B5C6469C
:1039200000B507000E0000250123984600E0013590
:10393000B5420AD2AC003C192068FFF7DFFF2060D7
:103940000028F4D100239846F1E7404604BC904695
:10395000F0BD0000124A936F9B0815D29066D166A5
:10396000002905D0FFE7FFE7FFE7516F106F7047B1
:1039700004B580210906C2175140002800D0C84371
:1039800001F02AF9002104BDF0B5146E556E576F91
:10399000166FFFF7E3FF1466556657671667F0BDAD
:1039A000000000D0114A936F9B0813D21066516635
:1039B000002905D0FFE7FFE7FFE7516F106F704761
:1039C00004B5002801D00020C04301F005F9002112
:1039D00004BDC046F0B5146E556E576F166FFFF7F5
:1039E000E5FF1466556657671667F0BD000000D006
:1039F00094464E4A926F9208624601D230E0C04629
:103A0000F0B54A4EB56F6D08FCD3346E756E776FA6
:103A1000366F00F025F89446444A14665566576799
:103A200016676246F0BDC0469446404A926F9208BF
:103A3000624601D258E0C046F0B53C4EB56F6D0805
:103A4000FCD3346E756E776F366F00F04DF8944688
:103A5000364A14665566576716676246F0BDC0461B
:103A6000002B24DB11D000293EDA00B5C9434042C7
:103A700000D1013100F038F8C943404200D1013192
:103A8000DB43524200D1013300BD002AEBD10028B4
:103A900001D1002905D00020C90FC90701D1C043B9
:103AA000410800B501F090F80022002300BD00B5E8
:103AB00000290ADBDB43524200D1013300F014F845
:103AC000C943404200D1013100BDC943404200D149
:103AD0000131DB43524200D1013300F005F8DB43F2
:103AE000524200D1013300BD002923D1002B18D14F
:103AF000002A0CD0BC460D4F38667A6600210023A0
:103B0000FFE7FFE7FFE77A6F386F674670470028E7
:103B100001D00748010000B501F056F8002200234B
:103B200000BD02000B00002000217047000000D003
:103B3000FFFFFFFF002B00D0BDE0130C26D1002AB1
:103B4000E7D080B4104F39667A66FFE7FFE730B4FC
:103B5000040C7B6F396F1B0423433B66FFE7FFE7D1
:103B6000FFE7C04684B27B6F3D6F1B0423433B6677
:103B7000FFE7FFE7C04600232C042D0C7A6F386F57
:103B800000196941B0BC7047000000D0F0B5944600
:103B90000025140E01D112020835140F01D11201B3
:103BA0000435940F01D192000235D40F01D1520097
:103BB0000135D40B0134254F7C66254C3C660E0C38
:103BC00093B2FFE7FFE7FFE73C6F6643360C7703EE
:103BD000BE467343DF0B5B04C01AB941130C734339
:103BE000DB18C91ACE086643360CB64493B2734349
:103BF0001F0F1B01C01AB941130C73431F0B1B0588
:103C0000C01AB941860D8F023E436643360C092D1A
:103C100024DB520A7243801A7703460A6643360C45
:103C200016235B1BDE40DF40BF1964466643821BE0
:103C30007046043506330100D940A840C01900D3AE
:103C40000131A24206D20023F0BD0000000000D0E6
:103C5000FFFFFFFF121B0130F3D3F1E709277F1BA2
:103C6000FE406446A2B27243801A00D20139220C8F
:103C70007243130C1204821A99410B0070460435EA
:103C800013370100F940A840801900D30131002BFF
:103C900002D1A2420AD2F0BD013000D30131121B81
:103CA000FAD2013BF8D1A24200D2F0BD013000D3DC
:103CB0000131121BF7E7F0B51C0C00D080E00CB40A
:103CC00000251C0A04D11B02160E334312020835CC
:103CD0001C0B04D11B01160F3343120104359C0B3E
:103CE00004D19B00960F334392000235DC0B02D1C6
:103CF00092185B4101351C00971864410134464F0E
:103D00007C66464C3C660E0CFFE7FFE7FFE7C046CB
:103D10003C6F6643360C7703BE4697B27743C01BB1
:103D200000D20139C01B00D201399FB27743C91BB1
:103D3000C91B170C77437E04FF0B801BB941CE08CB
:103D40006643360C0C2D33DBB644120B1F053A4389
:103D50001B0B97B27743C01B00D201399FB2774348
:103D6000C91B170C77433E043F0C801BB941860DDD
:103D70008F023E43664329277F1BFE400C3D77465A
:103D8000AF40BF1930BCA2B2ABB272437343801ACA
:103D90009941220C7243130C1204801A99410200BB
:103DA0000B000137001BA941F9D2781E0021F0BD9C
:103DB0000C277F1BFE4077467F0BAF40FF19E0E7E3
:103DC00000245D1C07D0144F7D663966FFE7FFE7CE
:103DD000FFE7FFE73C6F95B29EB265436643401B29
:103DE000B141150C1E0C6543664336042F0C3E434F
:103DF0002D04401BB141994204D202000B00200067
:103E00000021F0BD01D19042F7D3801A99410134CD
:103E10009942F2D3F6E70000000000D0FFFFFFFF59
:103E200048404140484018B41B4B5B68FC46019336
:103E300008BD04DFEB40001018B4174B1B68FC46AC
:103E4000019308BD00DFF54000109446134A926FBD
:103E5000920809D2624618B40F4BDB68FC46019306
:103E600008BD0CDFAD4300100C4AF0B5146E556E62
:103E7000576F166F6246FFF7EEFF084A14665566E5
:103E800057671667F0BD18B4034B9B68FC46019357
:103E900008BD08DF514200103C090020000000D09E
:103EA000FFB550404240504059404B40594000E01F
:103EB000FFB5154F4C00640D03D0BC4204D10C0378
:103EC00014D80020090D09055C00640D03D0BC4224
:103ED00004D11C030AD800221B0D1B0501264B40F0
:103EE00009D44B4003D58B4200D18242FFBD994299
:103EF000FCD19042FFBD0B43DB1803431343F5D0C5
:103F0000C9434918FFBD0000FF07000000B5FFF7D7
:103F1000CFFF804100BDC04600B5FFF7C9FF01D902
:103F2000002000BD012000BD00B5FFF7B9FF01D999
:103F3000002000BD012000BD00B5FFF7B1FF8041AA
:103F400000BD012040054A00121804D85A0012187A
:103F500001D8002070470120704700207047000002
:103F60000021002805D17047C1174840401AFAD0F7
:103F7000C90713B5064B1B6898470CBC441CA240EC
:103F80001005120B0349091B09051943114310BD04
:103F90003C0B00201F04000010B54C00620D802374
:103FA000D218DB00D21A5B057E2A10DD9E3A13DAA6
:103FB000CC170903490819435242D1406400013427
:103FC0001532202A05DAD0400843604310BD002096
:103FD00010BD0846604310BDC80FC018013810BDA1
:103FE00018B4044B5B6AFC46019308BD24DFD94535
:103FF000001000003C09002070B513231C78012C30
:104000000FD0012C0FDC022C02DC1D4A1D4B9A64E0
:1040100070BD99001A481B4A885001331F2BF8D9EC
:10402000EFE70023FAE71848FFF770FC0500174890
:10403000FFF76CFC023803789B007F2B19DD802290
:104040002900104800F0E4FB022CDCD1104B1A8848
:10405000B5231B029A4209D10E4B1A880E4B9A4285
:1040600004D10E4B1A880E4B9A42CCD00020FDF79B
:10407000BFFF0C4B0C4A30210C48FDF79BFFC0469C
:10408000B14000103C09002053440000534600009A
:1040900054380000D8380000494600009C38000021
:1040A00059460000D070001074710010307100107B
:1040B00007B56046002800D100BE01880A0A023018
:1040C000DF2AFAD1C9B2820804D3028840880004EA
:1040D000104300E00068024A5050039007BD000002
:1040E0003C0900200FB403BC0CBCF0B50124E4076C
:1040F000634000E0F0B50C0DCF0F661E3605891B3E
:10410000640503D3C943404200D30131640D03D099
:10411000661CF60A07D0E41B00207F00791C890783
:104120008912803C24031D0DDF0F6E1E36059B1B7C
:104130006D0503D3DB43524200D301336D0D03D031
:104140006E1CF60A07D0ED1B00227F007B1C9B072C
:104150009B12803D2D032F1B661B58D4A446202E96
:1041600046DA20371400BC401D00BD40F240334108
:104170002A4380185941CB0F05D0C943C0430022C0
:1041800064425041514162464D0D28D10D0D07D179
:1041900000281FD0241940414941013A0D0DF9D0A2
:1041A000640006D3013000D30131002C01D1400856
:1041B0004000013A0BD4941CE40A04D112051144C6
:1041C000DB071944F0BDD907204B194300E0D9079C
:1041D0000020F0BD0029DDD1002CDBD1F0BD013283
:1041E000C6074008CD0728434908002EE1D0D9E78B
:1041F0003C2E29DA203E40371400BC4000D0012478
:10420000F24014431A00BB401C43D317ACE7AC4642
:10421000202F08DA20360400B4400D00B540F840E5
:1042200039412843A5E73C2F0CDA203F40360400F3
:10423000B44000D00124F84004430800B1400C43CE
:10424000C117EAE710001900002494E70000F07F8E
:10425000F0B50C0D661E3605891BE60A6405640D73
:1042600002D0651CED0A04D0002001210905803C24
:104270002403A4461C0D671E3F05DB1BE70A6405EB
:10428000640D02D0651CED0A04D0002201231B0539
:10429000803C24037740644497B484B296B274435C
:1042A000070C7E43150C6F4380B26843361802D367
:1042B000012000043F183004350C00197D4184466C
:1042C00088B29AB250430C0C62431F0C7C438EB2EE
:1042D0007E43921902D301263604A4191604170C42
:1042E0003618674101BC81B29AB25143040C624353
:1042F0001B0C5C4380B25843121802D30120000407
:1043000024181004130C401863412D185E4100203E
:10431000474106BC88B293B258430C0C6343120C5D
:10432000544389B251435B1802D301210904641834
:1043300019041A0C091862416D18564100204741B2
:1043400018BCF902720D1143F0026A0D1043ED0220
:104350000A0D03D16D1940414941013B124E9B1B8F
:104360007600B3420ED26D0007D3013000267141B2
:104370006646354301D1400840001B05C918E407D3
:104380002144F0BD0BDA013306D1013004D10131F3
:104390004F0D01D04908F2E7E1070020F0BD0136DA
:1043A00031050020EBE70000FF030000F0B51C0D15
:1043B000671E3F05DB1BE70A6405640D02D0661C1F
:1043C000F60A04D0002201231B05803C2403D025DB
:1043D0002D060026F6432E661E096E66CE0FF619D0
:1043E000B44649004F0D02D07E1CF60A03D00020CF
:1043F0000021403F3F033E1BB600B444013F7F0510
:10440000C91B49082E6F013676089C02950D25437D
:104410007543ED137543AD1301356D10F603761B2F
:104420000CB4CC02450D2C43A2B2B3B25A43270CB4
:104430007B43350C6F43A4B26C431B1902D3012498
:1044400024043F191C041D0CA4187D4124196D413E
:10445000009A91B2ACB26143170C7C432B0C5F43C2
:1044600092B25A43A41802D301221204BF182204A4
:10447000230C52187B41019C6C431B19520ED9012D
:104480000A434401A01A81B2B2B2514303145A4301
:10449000360C734387B27743D617D21900277E4173
:1044A00036049B191704160C7F185E417316ED181D
:1044B000F301002680337541A90F06D16400690A13
:1044C000E8055B0A184309D22FE0042294448033A4
:1044D0007541A90AA8059B0A184326D340414941C2
:1044E0002404009A019B0D005543641B4343E41AC6
:1044F00095B286B27543170C7E43030C5F4392B2AC
:104500005A43B61802D301221204BF183204330CE6
:1045100052197B4152429C41002C02D400220130AE
:1045200051414008CA071043490802B06246D70704
:104530009210084BD218084B9A4203D212058918E0
:10454000C919F0BD0020002A01DC3900F0BD01339B
:104550001905F5E7FD030000FE070000624618CAD2
:10456000944600291ADAC01861415B463B415C461B
:10457000B4405246FA40224344464D4662416B41A4
:10458000904699462B46B3403D41FC401C43524661
:104590005B46A241AB4192469B467047C01AA1417F
:1045A0004B463B414C46B4404246FA4022435446B7
:1045B0005D4662416B4192469B462B46B3403D416E
:1045C000FC401C4342464B46A241AB4190469946B3
:1045D0007047002000217047002200B5203200F013
:1045E00004F8080000BD000000220B15F1D410B53E
:1045F000944600F02FF81414013400DA0021CB1790
:10460000134C20476244343A0CD40C2A07DA0400D5
:104610009140904052422032D440214310BDD843B3
:10462000D94310BD203207D40C4694405242203268
:104630001141D040204310BD0800C917203203D4D7
:1046400052422032104110BD1800190010BD000068
:10465000054600100A0DCC0F531E1B05C91A520542
:1046600003D3C943404200D30131520D03D0531C40
:10467000DB0A07D0121B00206400611C8907891225
:10468000803A1203014BD21A70470000FF0300006A
:1046900051434343C9188C46110C83B24B4310B4A9
:1046A000040C614392B280B2504362431C041B0C61
:1046B000001910BC59411304120CC0185141614437
:1046C0007047000070B513231D782A48FFF71EF9C4
:1046D0000400012D11D0012D09DDA31E1B789B00C4
:1046E0007F2B40DD80222100234800F091F82348F1
:1046F000FFF704F9224B186070BD542201001E48D8
:1047000000F086F81F4B1A881F4B9A421CD1A72332
:104710009B011A881D4B9A4216D11D4B1A881D4BBE
:104720009A4211D11C4B1A8894239B019A420BD1B7
:104730001A4B1A881A4B9A4206D11A4B1A681A4B0E
:104740009A4201D1152307E01848FDF751FC990062
:104750001748094A885001331F2BF8D9144A064BD1
:104760001A62DA61B7E7134B134A42211348FDF787
:1047700021FCC046534600003C0A00204C33000098
:104780003C0B0020EE290000C40F0000C20D000009
:10479000962B0000C0B50000182B0000CC2A0000AA
:1047A00010B50000FC2C000051ED8764B46A0010C5
:1047B000C14700108871001000720010BC71001019
:1047C00007B56046002800D100BE01880A0A023001
:1047D000DF2AFAD1C9B2820804D3028840880004D3
:1047E000104300E00068024A5050039007BD0000EB
:1047F0003C0A002001480421014B184720030020F7
:104800001D390010014B1B681847000020030020D1
:10481000014B5B681847000020030020F8B5060034
:104820000D001700437C002B23D1036811002800E2
:104830009847F8BD337C10E0022117483368984749
:10484000601C0134BC4217DA002CF3DD2B19013B4C
:104850001B780D3B5A425341DBB22A5D0A2AF0D144
:10486000002BEED1A042E7DA211A281833689847C6
:10487000E2E700240020E5E7B84203DA391A2818F5
:1048800033689847002FD4DDED19013D2B780D3B9F
:104890005A4253413374CCE77C72001070B5050066
:1048A0000368002B16D00C4B1C6805E0291D2A68F4
:1048B0002000FFF7B3FFE468002C09D02368002B29
:1048C000F9D0064B1B68002BF0D0A342F3D1EDE7E3
:1048D00000232B6070BDC046E4040020E8040020E3
:1048E00070B505000C000B68802B05D023685A1C9E
:1048F0002260E418257170BD0800FFF7CFFFF5E7CF
:1049000010B582B0D0231B0600241C5701A907480C
:1049100000F06AF9002806D1019B9C4203D00348AD
:1049200000F072F9012002B010BDC0463003002033
:1049300010B5024800F040F910BDC0463003002019
:10494000F0B585B001900D001600FFF7D9FF070004
:104950006B1C02D0164B1C6805E0019800F0F6F8BD
:104960000500F7E7E468002C18D02368002BF9D085
:10497000104B1B68002B01D0A342F3D12A000199F0
:104980002000FFF74BFF002EECD002ABD91D0A230D
:104990000B7001222000FFF741FFE3E7002F04D155
:1049A000681E8541E8B205B0F0BDFFF7C1FFF7E72B
:1049B000E4040020E804002010B5064B1C6800E069
:1049C000E468002C04D06368002BF9D09847F7E71F
:1049D00010BDC046E404002070B5050000F0B6F834
:1049E0000400012201002800FFF7AAFFFFF7E4FFFF
:1049F000200070BD70B5A2B004000E00FFF780FF6C
:104A000005008422002101A8FFF7FCFE33002200EC
:104A100001A90848FEF75AFF040001A8FFF73EFF6E
:104A2000FFF7CAFF002D02D1200022B070BDFFF7B2
:104A30007FFFF9E7E14800100FB400B583B004A987
:104A400001C90191FFF7D6FF03B008BC04B01847B5
:104A5000F0B5D64600B582B082460D000620FDF7BF
:104A6000DDFB0090022400E03C00FE2C1ED8009BE1
:104A700001930026A71C38022A0000230021FFF71B
:104A800007FE002904D1B142EED1019B9842EBD937
:104A900080267600012E0CD9771E210079430098DC
:104AA000FEF780FFA84204D83E00F3E78026760098
:104AB000F0E753461C61731E1B02524612685340B6
:104AC000FF22120213408022520151460A43136012
:104AD000310061430098FEF765FF02B004BC9246C6
:104AE000F0BD000010B50400144B984222D0802283
:104AF0009202134B1A60134B1A60134B9B68100001
:104B00009843FAD12000FFF7A3FF22680723534000
:104B1000CF221A4080235B0123431A6022002432F3
:104B200080239B011A430321116004341C43022398
:104B3000236010BD80225202DBE7C04600C0034064
:104B400000E0004000F0004000C0004010B504004C
:104B500083070AD00378002B23D0032202E00378D6
:104B6000002B1CD001301042F9D102680E4B0F49C6
:104B7000D31893430B420FD1043002680A4BD31869
:104B800093430B4208D104300268074BD318934378
:104B90000B42F1D000E001300378002BFBD1001B69
:104BA00010BD0020FCE7C046FFFEFEFE8080808036
:104BB000F8B5C0460000000001B40248844601BCBC
:104BC000604700BFB101002001B40248844601BC27
:104BD000604700BF7D02002001B40248844601BC4A
:104BE000604700BF7D02002001B40248844601BC3A
:104BF000604700BF5501002001B40248844601BC53
:104C0000604700BF4502002001B40248844601BC51
:084C1000604700BFC100002055
:104C180000000000000000005F000000000700071F
:104C28000000147F147F1400242A7F2A1200231303
:104C38000864620036495522500000050300000050
:104C4800001C224100000041221C0000082A1C2AE6
:104C5800080008083E080800005030000000080856
:104C68000808080000303000000020100804020086
:104C78003E5149453E0000427F4000004261514993
:104C880046002141454B31001814127F100027457A
:104C9800454539003C4A494930000171090503007E
:104CA800364949493600064949291E00003636006A
:104CB80000000056360000000008142241001414B9
:104CC80014141400412214080000020151090600BE
:104CD800324979413E007E1111117E007F494949D0
:104CE80036003E41414122007F4141221C007F495C
:104CF800494941007F09090101003E414151320003
:104D08007F0808087F0000417F4100002040413FA4
:104D180001007F08142241007F40404040007F028C
:104D280004027F007F0408107F003E4141413E009D
:104D38007F09090906003E4151215E007F091929B2
:104D4800460046494949310001017F0101003F40C1
:104D580040403F001F2040201F007F2018207F0078
:104D6800631408146300030478040300615149457F
:104D7800430000007F414100020408102000414127
:104D88007F0000000402010204004040404040004F
:104D98000001020400002054545478007F48444421
:104DA8003800384444442000384444487F0038548C
:104DB80054541800087E09010200081454543C0099
:104DC8007F080404780000447D4000002040443DF2
:104DD8000000007F1028440000417F4000007C0450
:104DE800180478007C0804047800384444443800E7
:104DF8007C1414140800081414187C007C0804049B
:104E08000800485454542000043F444020003C40CB
:104E180040207C001C2040201C003C4030403C00CE
:104E28004428102844000C5050503C004464544C12
:104E3800440000083641000000007F0000000041E7
:104E48003608000008082A1C0800081C2A08080060
:104E5800000000000000000000000000000000004A
:104E6800000000000000000000000000000000003A
:104E78000000000000000000000000000E0000001C
:104E8800001F000000001F000000001F00000000BD
:104E98001F000000001F000000001F000000001F8E
:104EA800000000000E0000000000000000000000EC
:104EB80000000000000000000000000000000000EA
:104EC80000000000000000000000000000000000DA
:104ED80000000000000000000000000000000000CA
:104EE80000000000000000000000000000000000BA
:104EF80000000000000000000000000000000000AA
:104F08000000000000000000000000000000000099
:104F18000000000000000000000000000000000089
:104F28000000000000000000000000000000000079
:104F38000000000000000000000000000000000069
:104F48000000000000000000000000000000000059
:104F580000000000F0FFF7FF07E0FFE3FF03C4FFD6
:104F6800C1FF118CFF80FF181C7F007F1C3C0000D4
:104F7800001E7C0000001F7C0000001F7C00000059
:104F88001F7C0000001F7C0000001F7C0000001F29
:104F98007C0000001F7C0000001F7C0000001F3CFC
:104FA8000000001E1C7F007F1C8CFF80FF18C4FFC0
:104FB800C1FF11E0FFE3FF03F0FFF7FF0700000068
:104FC80000000000000000000000000000000000D9
:104FD80000000000000000000000000000000000C9
:104FE80000000000000000000000000000000000B9
:104FF80000000000000000000000000000000000A9
:105008000000000000000000000000000000000098
:105018000000000000000000000000000000000088
:1050280000007F007F0080FF80FF00C0FFC1FF01FC
:10503800E0FFE3FF03F0FFF7FF07000000000000B8
:105048000000000000000000000000000000000058
:10505800F0FF070000E0FF030400C0FF110C008808
:10506800FF181C001C7F1C3C003E001E7C003E00FC
:105078001F7C003E001F7C003E001F7C003E001F7E
:105088007C003E001F7C003E001F7C003E001F7C11
:10509800003E001F7C003E001F3C003E001E1C7F9F
:1050A8001C001C8CFF080018C4FF010010E0FF035F
:1050B8000000F0FF070000000000000000000000F2
:1050C80000000000000000000000000000000000D8
:1050D800000000000004000000100C000800181C6C
:1050E800001C001C3C003E001E7C003E001F7C0093
:1050F8003E001F7C003E001F7C003E001F7C003EDF
:10510800001F7C003E001F7C003E001F7C003E000C
:105118001F7C003E001F3C003E001E1C7F1C7F1CA5
:105128008CFF88FF18C4FFC1FF11E0FFE3FF03F005
:10513800FFF7FF070000000000000000000000006B
:105148000000000000000000F0FF070000E0FF037F
:105158000000C0FF01000080FF080000007F1C0065
:105168000000003E000000003E000000003E00007D
:1051780000003E000000003E000000003E0000006D
:10518800003E000000003E000000003E000000005D
:105198003E000000003E0000007F1C7F0080FF886A
:1051A800FF00C0FFC1FF01E0FFE3FF03F0FFF7FFCF
:1051B80007000000000000000000000000000000E0
:1051C8000000000000F0FF070000E0FF030000C43B
:1051D800FF0100108CFF0800181C7F1C001C3C00FD
:1051E8003E001E7C003E001F7C003E001F7C003EEF
:1051F800001F7C003E001F7C003E001F7C003E001C
:105208001F7C003E001F7C003E001F7C003E001FEC
:105218003C003E001E1C001C7F1C0C0088FF18046C
:1052280000C0FF110000E0FF030000F0FF070000CE
:105238000000000000000000000000000000000066
:105248000000F0FFF7FF07E0FFE3FF03C0FFC1FF27
:105258001180FF88FF18007F1C7F1C00003E001E85
:1052680000003E001F00003E001F00003E001F001F
:10527800003E001F00003E001F00003E001F00000F
:105288003E001F00003E001F00003E001F00003EC1
:10529800001E00001C7F1C000088FF180000C0FFD3
:1052A800110000E0FF030000F0FF0700000000000D
:1052B80000000000000000000000000000000000E6
:1052C80000000000000000000004000000000C00C6
:1052D8000000001C000000003C000000007C0000F2
:1052E80000007C000000007C000000007C00000042
:1052F800007C000000007C000000007C0000000032
:105308007C000000007C000000003C000000001C45
:105318007F007F008CFF80FF00C4FFC1FF01E0FF1A
:10532800E3FF03F0FFF7FF070000000000000000A4
:10533800000000000000000000000000F0FFF7FF80
:1053480007E0FFE3FF03C4FFC1FF118CFF88FF18CC
:105358001C7F1C7F1C3C003E001E7C003E001F7C06
:10536800003E001F7C003E001F7C003E001F7C00AA
:105378003E001F7C003E001F7C003E001F7C003E5C
:10538800001F7C003E001F3C003E001E1C7F1C7F4F
:105398001C8CFF88FF18C4FFC1FF11E0FFE3FF0367
:1053A800F0FFF7FF07000000000000000000000009
:1053B800000000000000000000F0FF070000E0FF10
:1053C800030000C4FF0100008CFF0800001C7F1CC4
:1053D80000003C003E00007C003E00007C003E00D7
:1053E800007C003E00007C003E00007C003E000087
:1053F8007C003E00007C003E00007C003E00007CFB
:10540800003E00003C003E00001C7F1C7F008CFF1B
:1054180088FF00C4FFC1FF01E0FFE3FF03F0FFF7CF
:10542800FF0700000000000000000000000000006E
:105438000000000000000000000000000000000064
:1054480004000000100C000000181C0000001C3CA8
:105458000000001E7C0000001F7C0000001F7C0074
:1054680000001F7C0000001F7C0000001F7C000063
:10547800001F7C0000001F7C0000001F7C00000053
:105488001F3C0000001E1C0000001C0C000000183F
:1054980004000000100000000000000000000000F0
:1054A80000000000000000000000000000000000F4
:1054B80000000000000000000000000000000000E4
:1054C800000000000000000000000000F800FE6777
:1054D800FE67F80000000000000000000000000067
:1054E80000003C003C00000000003C003C000000C4
:1054F8000000000000000004203C203FE007FC04FE
:105508003C3C203FE007FC043C0020000000000079
:10551800F008F8199819FE7FFE7F9819981F100F48
:1055280000000000000000303838381C380E000732
:105538008003C001E03870383838000000000000EF
:10554800001FB83FFC31C621E2373E1E1C1C003646
:105558000022000000000000000000004E007E0055
:105568003E000000000000000000000000000000F5
:105578000000E007F81FFC3F0E70024002400000E8
:1055880000000000000000000000024002400E7011
:10559800FC3FF81FE00700000000000000000000CA
:1055A800980CB80EE003F80FF80FE003B80E980C4B
:1055B8000000000000000000800180018001F00F61
:1055C800F00F800180018001000000000000000051
:1055D80000000000005C007C003C000000000000AF
:1055E80000000000000000008001800180018001AF
:1055F800800180018001800100000000000000009F
:1056080000000000003800380038000000000000EA
:105618000000000000000018001C000E00078003B6
:10562800C001E000700038001C0000000000F00F0E
:10563800FC3F0C3C066606638661C66066603C30CB
:10564800FC3FF00F00000000186018601C60FE7F2F
:10565800FE7F00600060006000000000000038600D
:105668003C700E78067C066E06678663C661EE603F
:105678007C603860000018181C380E7086618661DE
:10568800866186618661CE73FC3E781C00008007C7
:10569800C007E006700638061C060E06FE7FFE7F71
:1056A8000006000600007E18FE38C670C660C66098
:1056B800C660C660C660C671863F061F0000801FB0
:1056C800E03FF073B8619C618E6186618661867384
:1056D800003F001E0000060006000600066006786F
:1056E800061E8607E6017E001E0006000000001E5A
:1056F800783FFC73CE61866186618661CE61FC73FA
:10570800783F001E00007800FC00CE61866186614B
:1057180086718639861DCE0FFC07F801000000004F
:1057280000000000701C701C701C000000000000CD
:10573800000000000000000000000000384E387E25
:10574800383E0000000000000000000000000000DB
:105758008001C003E007700E381C1C380E7006600C
:105768000000000000000000600660066006600699
:105778006006600660066006600600000000000023
:1057880006600E701C38381C700EE007C0038001DC
:1057980000000000000038003C000E000600066F04
:1057A800866FC601EE007C00380000000000F01F84
:1057B800FC3F0E30E667F66F366CF66FF66F0E6CD0
:1057C800FC07F00300000070007EC00FF80D3E0CCF
:1057D8003E0CF80DC00F007E007000000000FE7F38
:1057E800FE7F8661866186618661CE61FC73783F43
:1057F800001E00000000E007F81F1C380E7006604D
:10580800066006600E701C38181800000000FE7F45
:10581800FE7F06600660066006600E701C38F81F82
:10582800E00700000000FE7FFE7F866186618661DA
:105838008661866186610660066000000000FE7F62
:10584800FE7F8601860186018601860186010600A3
:10585800060000000000E007F81F1C380E70066004
:105868008661866186618E7F8C7F00000000FE7FE6
:10587800FE7F800180018001800180018001FE7F20
:10588800FE7F000000000000000006600660FE7F4A
:10589800FE7F066006600000000000000000001C9B
:1058A800003C007000600060006000600070FE3F17
:1058B800FE0F00000000FE7FFE7F8001C003E007AE
:1058C800700E381C1C380E70066000000000FE7F49
:1058D800FE7F0060006000600060006000600060A3
:1058E800006000000000FE7FFE7F3C00F000C00367
:1058F800C003F0003C00FE7FFE7F00000000FE7F3A
:10590800FE7F1C007000E0018007000E0038FE7F5B
:10591800FE7F00000000E007F81F1C380E700660CC
:1059280006600E701C38F81FE00700000000FE7FBC
:10593800FE7F060306030603060306038E03FC0127
:10594800F80000000000E007F81F1C380E70066021
:10595800066C0E7C1C38F87FE06700000000FE7FB4
:10596800FE7F060306030607060F061F8E3BFC7123
:10597800F860000000007818FC38CE7186618661F6
:10598800866186618E731C3F181E000000000000AF
:10599800060006000600FE7FFE7F060006000600E1
:1059A800000000000000FE0FFE3F00700060006075
:1059B800006000600070FE3FFE0F000000000E0057
:1059C8007E00F003801F007C007C801FF0037E00B7
:1059D8000E0000000000FE7FFE7F0038000C00076C
:1059E8000007000C0038FE7FFE7F00000000066004
:1059F8001E78381C6006C003C0036006381C1E7879
:105A080006600000000006001E007800E001807FAC
:105A1800807FE00178001E0006000000000006609C
:105A28000678067C06668663C66166603E601E6010
:105A380006600000000000000000FE7FFE7F066098
:105A480006600660066000000000000000001C0000
:105A580038007000E000C00180030007000E001C41
:105A680000380000000000000000066006600660C4
:105A78000660FE7FFE7F0000000000000000C000FE
:105A8800E000700038001C000E001C003800700098
:105A9800E000C0000000006000600060006000607E
:105AA800006000600060006000600000000000000E
:105AB8000000000000003E007E004E0000000000D4
:105AC800000000000000001C403E6033603360337B
