:020000041000EA
:1000000000B5324B212058609868022188439860DF
:10001000D860186158612E4B002199600221596106
:100020000121F02299502B49196001219960352056
:1000300000F044F80222904214D00621196600F024
:1000400034F8196E01211966002018661A6600F04E
:100050002CF8196E196E196E052000F02FF8012189
:100060000842F9D1002199601B49196000215960AB
:100070001A491B48016001219960EB211966A021F2
:10008000196600F012F800219960164914480160C1
:100090000121996001BC002800D000471248134993
:1000A000086003C880F30888084703B5996A0420EC
:1000B0000142FBD001200142F8D103BD02B5186610
:1000C0001866FFF7F2FF186E186E02BD00000240BE
:1000D000000000180000070000035F00212200005C
:1000E000F4000018222000A00001001008ED00E03C
:1000F00000000000000000000000000074B24E7A12
:1001000000200420F7010010C3010010C5010010F9
:10011000C1010010C1010010C1010010C101001097
:10012000C1010010C1010010C1010010C701001081
:10013000C1010010C1010010C9010010CB01001065
:10014000CD010010CD010010CD010010CD01001037
:10015000CD010010CD010010CD010010CD01001027
:10016000CD010010CD010010CD010010CD01001017
:10017000CD010010CD010010CD010010CD01001007
:10018000CD010010CD010010CD010010CD010010F7
:10019000CD010010CD010010CD010010CD010010E7
:1001A000CD010010CD010010CD010010CD010010D7
:1001B000CD010010CD010010CD010010CD010010C7
:1001C00000BE00BE00BE00BE00BE00BE00F04BF888
:1001D000103800BEF2EB8871CC800010E88000106F
:1001E0003402001090A31AE700202149086006C8D5
:1001F00081F3088810471F48006800282FD10DA4FC
:100200000ECC002902D000F012F8F9E71A491B4A77
:10021000002000E001C19142FCD1194988471949E9
:1002200088471949884700BEFDE701C901C29A42C3
:10023000FBD37047E8800010C0000020DC020020E3
:100240000483001000000420000004200483001038
:1002500000100420001004200000000070470B482C
:1002600005F04CF80047EFF30580C0B2704700007E
:1002700008ED00E0000000D0E0020020D40A0020D9
:100280005D2400105D0300105D250010575600002E
:1002900006005250ABB360539C80001006005250D1
:1002A000861C0302AC800010060052505422A29D0E
:1002B000BC80001005005250DE65F4680483001015
:1002C000F8B5C0460448054B10B5834203D0044B33
:1002D000002B00D0984710BDDC020020DC0200207B
:1002E0000000000006480749091A8910CB0F591869
:1002F00010B5491003D0044B002B00D0984710BD17
:10030000DC020020DC0200200000000010B5074CD9
:100310002378002B09D1FFF7D5FF054B002B02D026
:10032000044800E000BF0123237010BDE00300205B
:100330000000000008650010054B10B5002B03D02D
:100340000449054800E000BFFFF7CCFF10BDC046E0
:1003500000000000E403002008650010F0B5DE4650
:100360004E4645465746E0B589B000F015FA7F2362
:10037000AB4D009310225F3B0C21280000F0B6FA31
:1003800000220021A74800F075FB02220021A648A8
:1003900000F070FB04220021A44800F06BFB062251
:1003A0000021A34800F066FBA24801F0F5FB002005
:1003B00000F05CFC00221E219F4800F05BFB102433
:1003C0000126E3B27F2210210020009600F03AFEC1
:1003D000FA200434400001F0DFFB402CF1D19548B5
:1003E00001F0DAFB002000F041FC00220A219348D2
:1003F00000F040FB3F3CE2B201231F213F2000F010
:10040000A9FFFA200334400001F0C6FB102CF2D102
:10041000884801F0C1FB002000F028FC8026002263
:100420000021874800F026FB3E27764201213B1B36
:10043000321B2000DBB2D2B20091210000F0F8FEA6
:10044000FA2004344000E4B201F0A6FB202CEDD1E8
:10045000784801F0A1FB002000F008FC00220021F8
:10046000784800F007FB183C07237F22002100207A
:1004700000F06AFD013C744801F08EFB002CF3D1C2
:10048000FA20800001F088FB002000F0EFFB203410
:10049000002208216D4800F0EDFA00942023032289
:1004A00014216B4800F0C6FC20230322482100944D
:1004B000684800F0BFFC5F4801F06EFB0094202309
:1004C00003221421644800F0B5FC202303224821B4
:1004D0000094624800F0AEFC564801F05DFBFA2043
:1004E000800001F059FB002000F0C0FB0022232116
:1004F0005B4800F0BFFA5B4B002499465A4B3A2701
:100500009A465A4B7F2698462200494603A804F093
:10051000C1FE2E23282219215046009700F0E6F94B
:100520000322002103A800F0BBFA202310220C2193
:100530002800009600F0DAF903225A2103A800F0FF
:10054000AFFA2023082206214046009600F0CEF99B
:100550000622632103A800F0A3FA0134C82001F0A9
:100560001BFB712CD0D1334801F016FB404800F042
:10057000E3FB404801F010FB002000F077FB009601
:10058000202310220C21280000F0B0F9843400F060
:1005900063FB394EFF34300000F098FA013C322002
:1005A00001F0FAFA002CF6D1002000F05FFB00F019
:1005B00053FB002398463A330A34304F7F269B463C
:1005C00003E00134322001F0E7FA280000962023EE
:1005D00010220C2100F08AF9380000F077FA0A2C7A
:1005E000EFD14246494603A804F054FE5B46282258
:1005F000009319212E23504600F078F903221A2186
:1006000003A800F04DFA4346782B04D001239C4602
:100610000124E044D6E7002301249846D2E7C046EF
:10062000A46D0010A4780010B0780010B878001005
:10063000C4780010B80B0000D0780010D8780010F3
:10064000E0780010EC780010DC050000F87800106D
:10065000A476001024770010A477001024780010EE
:10066000047900100C79001048670010086500102C
:10067000B479001088130000147900103479001048
:10068000F0B5DE4657464E464546E0B51700072210
:1006900085B0030900931300CE0833400193D024A2
:1006A0000F232025894602A92406034005319346DD
:1006B00079320B70904665618246A26134487F3A78
:1006C000A56105F011FF1023009802A903434046DD
:1006D0000631656101220B706561A061A5612C483E
:1006E00005F002FF5023019A02A95B421343073130
:1006F00065610B70434665610122A3612448A561D1
:1007000005F0F2FE6561022F32D0032F1FD0012FBA
:1007100006D005B03CBC90469946A246AB46F0BD1B
:100720004A465B4613409F40F6011A4B56449A5D79
:1007300003A91743FFB29F550F704346656101221D
:1007400063611348A56105F0CFFE6561E1E74A46A4
:100750005B46134001229A401300F6010D4A5644AD
:10076000915D4B40DBB2935502AA911C0B70E4E7FC
:100770004A465B46134001229A400649F601564418
:100780008B5D934302AA8B55D11C0B70D5E7C046F5
:1007900000C00340BC040020F0B5DE464546574685
:1007A0004E460023D024E0B520258026494A85B056
:1007B0001360494A05201360240600F09BFE0720C1
:1007C00000F098FE656201210620666200F07AFE64
:1007D0000121052000F076FE0121032000F072FEC9
:1007E0003E493F4805F0B4FD65611B22A6613D49C5
:1007F000A5613B4805F078FE65613848002101F0AD
:10080000B3F900230193384B00259B4600239846FB
:1008100003AF424602AB20265A7180236661994697
:10082000A36102AB591D0122A6612D4805F05CFEB3
:10083000102302AA666193714B466661A36102AB05
:10084000991D0122A661264805F04EFE5023019A0B
:100850005B42134302AA6661D3714B466661A36192
:1008600002ABD91DA66101221D4805F03DFE802383
:100870009A466661AA44434620263B704B46666111
:10088000012263613900A661154805F02DFE5B4623
:1008900042465B19013566611A705545EBD1019BE3
:1008A0000133DBB20193082BB3D102ABD91CAF23C8
:1008B0000B702F3B66610122A3610948A66105F018
:1008C00013FE666105B03CBC90469946A246AB4615
:1008D000F0BDC046B0040020C808002020A10700D9
:1008E00000C00340B47D0010BC04002030B5074DAB
:1008F000D2082860064803AC0170064924780A70C3
:10090000054A1370054B1C7030BDC046B80400206A
:10091000CD080020CC080020C1080020C00800201D
:10092000F0B5DE46574645464E46E0B589B00492DE
:10093000494A4A4B12781C681500494B8A461C608C
:100940009B46484B1B78C01A474B1B785D43684356
:10095000002802D020185C462060002B75D0049837
:10096000C001411800208146404809180591002A1D
:1009700065D053461020DBB2190908430599019050
:10098000494402910F2119400026039107E05B467C
:1009900059461B68013601330B60B2424DD95346AC
:1009A0007F2BF4D80722D02420258027049B2406FF
:1009B0009B191A40904606AB591D039B01220B70F0
:1009C0002B486561A761A56105F08EFD06AB991DF9
:1009D000019B656101220B7025486561A761A561D6
:1009E00005F082FD06ABD91D502342465B421343FE
:1009F000656101220B701E486561A761A56105F064
:100A000073FD5B461B6865611B7807A90B700122AB
:100A1000656117486761A56105F066FD5B461B6867
:100A2000656119780298F201815459460A4A0133E6
:100A3000127801360B60B242B1D80B4B1B78012102
:100A40008C46E144E2444B4591D809B03CBC904609
:100A50009946A246AB46F0BDCC080020B804002061
:100A6000AC040020C1080020CD080020BC040020F8
:100A700000C00340F8B5050000780C0016000028FF
:100A80000BD0064F21003200FFF74AFF01353B78BB
:100A90002878E418E4B20028F4D1F8BDCD0800208D
:100AA000F8B5050000780C00160000280BD0064FA2
:100AB00021003200FFF734FF01353B782878E41835
:100AC000E4B20028F4D1F8BDCD080020F0B54646C8
:100AD000D6464F46C0B55A4D5A4E2C78337801341D
:100AE00082B0E4B2984607002C7005F0A7FC564B84
:100AF0001B78804500D19CE09C4200D188E06B4689
:100B0000D0252024991C802600232D060B7001225D
:100B10006C614E48AE61AC6105F0E6FC6B46D91CD9
:100B200010236C6101220B7048486C61AE61AC61AE
:100B300005F0DAFCB02301A96C6101220B70434877
:100B40006C61AE61AC6105F0CFFC414B6C619846C5
:100B50007F2343449946802344469A468027202693
:100B60006A46637869462370137038486E610122C3
:100B70006F610134AE6105F0B7FC6E614C45EED19A
:100B80006B46591D00230B7053466E610122AB6109
:100B90002E48AE6105F0A8FC6B46991D10236E61CE
:100BA0000B7053466E610122AB612848AE6105F0BF
:100BB0009BFC6B46D91DB1236E610B7053466E6171
:100BC0000122AB612148AE6105F08EFCFF239C46FB
:100BD0006B465F1C80236E61D02599461D4CE04416
:100BE0002D066378202623703B704B466E610122F0
:100BF0006B613900AE611548013405F075FC6E611A
:100C00004445EED102B01CBC90469946A246F0BDC8
:100C10004346002B00D047447F21091BC9B23878D6
:100C20000022FFF77DFE33780133337000232B70F1
:100C300065E7002232709C4200D060E7ECE7C046D6
:100C4000A6040020A5040020CD08002000C0034019
:100C5000BC0400203C0500200023024A1370024A15
:100C600013707047A6040020A5040020F0B5454687
:100C7000DE4657464E460023E0B585B001932C4B27
:100C8000D024804600259B46202603AF240600235F
:100C900002AA5371803366619946A36102AB591D64
:100CA0000122A661234805F01FFC102302AA6661F9
:100CB00093714B466661A36102AB991D0122A66147
:100CC0001C4805F011FC5023019A5B42134302AA11
:100CD0006661D3714B466661A36102ABD91DA66103
:100CE0000122144805F000FC80239A466661AA445C
:100CF00043463B704B466661012263613900A66141
:100D00000C4805F0F1FB5B46424666615A550135D9
:100D1000AA45EDD1019B0133DBB20193082BB6D17B
:100D200005B03CBC90469946A246AB46F0BDC046D5
:100D3000BC04002000C00340F0B5DE4657464E46D6
:100D400045460022E0B587B00192384AD024934648
:100D50002022904660329146131A0290009005AF0F
:100D600024060393009B029A9A469E1A1D000023B4
:100D700004AA5371494620226261A16104A9A261BB
:100D800005311F3A2A4805F0AFFB42461023626145
:100D900004AA9371424662614A46A261424604A98E
:100DA000A26106310122224805F09EFB42465023F3
:100DB0006261019A5B42134304AAD37142466261A5
:100DC0004A46A261424604A9A2610731012218489D
:100DD00005F08AFB42466261039A524492462B78A0
:100DE00001223B70434663614B46636143463900D1
:100DF000A3610F4805F078FB43465A4663612B78A0
:100E00000135935501365645E9D1019B009A0133CE
:100E1000DBB2803201930092082BA3D107B03CBC17
:100E200090469946A246AB46F0BDC046BC040020A1
:100E300000C00340F0B55746DE464E464546E0B595
:100E400089B0924612AA12780C000391D2086FD092
:100E5000002B6DD0A446411A013B8B465146DBB2B4
:100E60005D1C634401339946C80135495244411819
:100E7000D2B20495019105925246072313405022A5
:100E800052421A43039D029202E00135A94542D025
:100E90007F2DFAD8EAB21309984606AB591DD02423
:100EA0000F2320268027240613400B700122666141
:100EB0002448A761A66105F017FB06AB991D4246C1
:100EC00010231343666101220B701E486661A761FF
:100ED000A66105F009FB06ABD91D029B66610122E4
:100EE0000B7018486661A761A66105F0FDFA5B46C4
:100EF00066615B5D07A90B7001226661114867613D
:100F0000A66105F0F1FA5B4666615B5D019A535597
:100F10000135A945BCD153460133DBB29A46049B47
:100F20009C46019BE34480330193059B9A45A3D1E2
:100F300009B03CBC90469946A246AB46F0BDC046BF
:100F4000BC04002000C00340F0B54546DE465746CD
:100F50004E46E0B587B0029000911500994266D8E0
:100F6000904264D88446AB46CA0134496244013396
:100F70005218DBB2019203930723009AD024134046
:100F8000502252421343DBB29A46029B019F99467C
:100F900024063B782025DB433B704B46DBB21A0925
:100FA00090460F228026134004AA537104AB65615A
:100FB000591DA6610122A561214805F095FA424616
:100FC0001023134304AA6561937104AB6561991DF5
:100FD000A6610122A5611A4805F086FA524604ABC3
:100FE0006561D91DDA71164865610122A661A561A6
:100FF00005F07AFA65613B7804AA137105A9656169
:10100000012266610E48A56105F06EFA01239C4637
:10101000E14465610137D945BBD9019A009B803213
:1010200001330192039ADBB200939A42A4D107B034
:101030003CBC90469946A246AB46F0BDBC0400209D
:1010400000C00340F0B5DE4657464E464546E0B583
:101050000E00121A9B1BD2B2DBB29A4613009346C3
:101060005A1E934189B0DBB2039353465A1E9341F3
:10107000DBB200935B4612A9097805000491002BAE
:1010800000D1A3E0D34500D8A0E05346DA469B4602
:10109000002302930133019353465C080023E4B21A
:1010A0001F000EE05346E41A039B01379C46009B49
:1010B00065449C46FFB26644E4B2EDB2F6B2BA456E
:1010C00014D36BB2002B01DB3F2E16D95C44E4B283
:1010D000A245E7D9019B01379C46029B65449C468B
:1010E000FFB26644EDB2F6B2BA45EAD209B03CBCF2
:1010F00090469946A246AB46F0BDF308059306AB71
:10110000591D0F232B400B70D0231B06984620231C
:10111000994643464A4648465A614246802393616F
:1011200090610122404805F0DFF94946424610230C
:101130005161280906AA911D03430B7040464A4697
:1011400080234261836182611F3A374805F0CCF900
:101150004846414650234861F20806A95B421343C2
:1011600007310B70424680235061936143464A46E3
:1011700098611F3A2C4805F0B7F943464A465A6130
:10118000049B022B40D0032B25D0012B9ED11900AC
:10119000F308DA010723334099400B002349521921
:1011A000895C0B432149DBB28B5407A90B704A467B
:1011B00043465A6160325A614A469A611F3A1A4858
:1011C00005F092F943464A465A617FE7009B029335
:1011D0000023019360E70721012231408A40F30890
:1011E000DB0112495B19C95C4A401049D2B2CA54AA
:1011F00006AB991C0A7043464A465A6180225A61DE
:101200004A469A610122DAE7F308DA01072301214D
:1012100033409940054B52199B5C8B4303498B54D7
:1012200006AAD11C0B70E6E700C00340BC040020F6
:10123000F0B54E4645465746DE46E0B583B01D0044
:101240000CAB1B789246019313001E1AF6B23300C2
:101250005A1E9341DBB2984681460C0000233F2979
:1012600064D90133DBB29E42FBD23F2D4AD92D1BFC
:10127000EDB22F007B1E9F414B465BB2FFB2002BAD
:101280003ADB00232600984607E043460133F6196F
:10129000DBB2F6B29846AB420ED83F2EF5D83100FD
:1012A000019A4846FFF7ECF943460133F619DBB2E1
:1012B000F6B29846AB42F0D953465BB2002B14DB32
:1012C000002605E00136E419F6B2E4B2B5420CD3CB
:1012D0003F2CF7D801362100019A5046E419F6B2A6
:1012E000FFF7CEF9E4B2B542F2D203B03CBC90466F
:1012F0009946A246AB46F0BD00230133DBB29D42C6
:10130000FBD2D9E700234F469B467BB2002B04DB80
:10131000019A29003800FFF7B3F95B4601334744CF
:10132000DBB2FFB29B46B342EFD9A0E707009B4672
:101330007BB2002B04DB019A21003800FFF7A0F9F3
:101340005B4601334744DBB2FFB29B469E42EFD27D
:101350008BE7C046F0B557464E464546DE46E0B5FB
:1013600089B003938B1ADBB29A465318DBB29946C5
:10137000831A8046029100270793140055464E4673
:1013800026E04B463F2B67D96B461B795BB29946EB
:10139000002B58DB3F2E00D883E0009B3F2B00D86A
:1013A00085E03F2D49D95B46002B02DB009B3F2B9C
:1013B0006AD95346002B01DB3F2D53D90137013C3D
:1013C0000135013EFFB2E4B2EDB2F6B2A74261D8F8
:1013D00043461B19DAB2029B0692DB19DBB299462F
:1013E00053B29B46002B02DB4B463F2B40D9434672
:1013F000DB19DBB205935BB29A46002B01DB3F2E73
:101400003CD94246D21BD2B20192029A079BD21B10
:10141000D2B2FB180092DAB204921B06B1D56B4629
:101420001B795BB2002BBEDB3F2EBAD8039A31008A
:101430000198FFF725F93F2DB5D8039A29000198A7
:10144000FFF71EF9AFE7009B3F2BACD81900039ABA
:101450000498FFF715F9A6E710004946039AFFF72D
:101460000FF991E7039A29000598FFF709F9A5E715
:1014700010004946039AFFF703F9B8E7039A3100D1
:101480000598FFF7FDF8BCE7039A19000698FFF7E7
:10149000F7F88EE709B03CBC90469946A246AB46A9
:1014A000F0BD039A31000198FFF7EAF875E7039A57
:1014B00000990498FFF7E4F84B46002B00DA72E736
:1014C0006FE7C046094A830094464022634410B542
:1014D0001C68C0006240C0241440802252011343A3
:1014E0001C60034B9C466044416010BD04C0014039
:1014F000004001400123D022834012069362936191
:10150000094A83009446402263441968C0004A4057
:10151000C02111408022520113431960034B9C46A5
:10152000052360444360704704C00140004001400F
:10153000F8B5EFF3108772B60D4E3368002BFCD070
:10154000BFF35F8F0725CB08C01801230D40AB40C8
:101550001D000478254007D123430370BFF35F8F3C
:10156000356087F31088F8BD100000F0F9FFC04621
:101570002C0100D0024B18688007C00F7047C0468E
:1015800000C006400021044B044ABFF35F8F02C332
:101590009342FAD17047C046000100D0800100D0CC
:1015A000044A1078431CDBB2172B00D910231370A8
:1015B0007047C0462402002083680B4810B584465B
:1015C00061446244090112019A18591854684B6821
:1015D00001209C4201D802D00020C0B210BD126888
:1015E0000B689A42F9D8F7E7FFFFFF0F0A4B19681B
:1015F000EFF3108072B60A68002AFCD0BFF35F8F49
:101600001B68BFF35F8F00221A6080F3108840BF11
:10161000002000217047C04690040020F8B55746CE
:101620004E464546DE46E0B51F000CAB1D780DABBF
:101630001B7881469A46036816009846002D3BD1D8
:10164000987B002832D04246454644001268241850
:10165000033C121951780300A973002900D1E973E2
:101660000021050091705170117029E0D3181419F0
:101670009D702278002A00D05A705B462370434642
:101680005D734B463200187D3B0000F067FB041E83
:1016900007D05346002B04D14B462900186800F0B0
:1016A0003DFD0E9B002B44D028001C703CBC904696
:1016B0009946A246AB46F8BD2B006C006419033C6A
:1016C0001D4A94464A469268634494461B010A9A0E
:1016D00063449A600B9A1E605F60DA6043460022A2
:1016E0001B681B199A705A701A7043465B7B9B46A5
:1016F000002BC4D043462A00986859465B68984737
:101700005B4642465B005B44033B12680028ADD059
:10171000D31814195A46A2701A78002A07D11D70DE
:101720005A46434628005A73AB45BFD1A9E76270B9
:10173000F5E72800BAE7C046FFFFFF0FF0B5DE4629
:10174000454657464E46724B8200E0B5D5580023B9
:101750008DB00B909B4627E0069A079B110019431A
:1017600003D02B69002B00D093E02B68DA7B002A92
:1017700007D051008A1819688C4649466244033ADA
:1017800051704A46DA73EA684B469446013B63441B
:101790001A7801321A705B462B616B68BFF35F8F5A
:1017A0005A461A6084F3108800F076FA6A68EFF3FC
:1017B000108472B61368002BFCD0BFF35F8F2B68C8
:1017C0009C465B7B9946002B5BD0AA68514B9046A8
:1017D0004B441B01984443461A685B6816001F007F
:1017E000361A8F41002F6EDD0B9800F0B7FA0022F9
:1017F000002300270026089209936B68BFF35F8FD0
:101800005A461A6084F31088002E76D05346180288
:101810004B4639001843B0476A6806900791EFF3CA
:10182000108472B61368002BFCD0BFF35F8F079B48
:10183000002B91DA2B69002B97D006980799089A0C
:10184000099B121A8B410898099906920793079AE7
:10185000914203D807D1069A904204D901225242FC
:10186000D317069207935B46012104934B460391DD
:10187000029301970096069A079B2800FFF7CEFE79
:1018800089E7002200230027089209930026002000
:10189000B3E700F001FA069A079B12184B419942F0
:1018A00002D804D1904202D901225242D31759469C
:1018B0000491012103914946019702910096280065
:1018C000FFF7ACFE67E7002F01D1002E8CD100217D
:1018D000604600F077FB43461A685B6808920993FC
:1018E00043469E68DF68EB684B44013B1B789A4691
:1018F0001B021843286100207FE7002800D053E72F
:101900000DB03CBC90469946A246AB46F0BDC046E1
:1019100080040020FFFFFF0F10B5124C6368002BFE
:1019200004D00A21104800F0A5FA10BD23000F4A88
:101930001021206800F028FB032000F0A1F903200B
:1019400000F078FA0A49032000F0C2F9FFF728FEF8
:10195000084B9C46032360442375074B800060605E
:10196000DC60DEE72802002090040020B91500109A
:101970003D1700104000003480040020F0B55746A9
:101980004E464546DE460400E0B50D00062676428A
:10199000F71736196F4185B08F4200D987E000D123
:1019A00082E000F079F932003B00121A8B41002BE3
:1019B00000DC87E0674B99465A68EFF3108B72B6EC
:1019C0001368002BFCD0BFF35F8F4B461B68984613
:1019D0009B7B9A46002B7BD05B0053444246033BE3
:1019E0009C46414612680093624453788B73002BE7
:1019F00000D1CB73002349469370537013708968EC
:101A0000554A8C465244554912016244166057604B
:101A10009160D360009942468C461268624493708C
:101A20005370137043465B7B0393002B00D16FE030
:101A300019004046434652465B6880689847039BBE
:101A40009C465A006244033A002854D0009940460C
:101A50008C46036803999A18634499701178002999
:101A600000D05970534613704246039B53739A45F6
:101A700051D04B465B68BFF35F8F00221A608BF337
:101A80001088BC46B0460094019500266546344F48
:101A9000344A7B6A9D424CD8B96A414501D29D4285
:101AA00047D0009C019D1BE0864200D879E70026C4
:101AB000002700F0F1F832003B00121A8B41002B96
:101AC00000DD77E7002B0BD1002A00D072E707E09A
:101AD0004B465B68BFF35F8F52461A608BF31088EA
:101AE0002000290000F0E4F805B03CBC904699467F
:101AF000A246AB46F0BD43461968009B8A18CB1836
:101B0000514691701978002900D05170039A1A70CB
:101B1000434652465A734B463200187D3B0000F054
:101B20001DF90028A5D04B465146186800F0F6FA7A
:101B30009FE71168EFF3108072B60B68002BFCD0A2
:101B4000BFF35F8F1368BFF35F8F1E6080F3108851
:101B500020BF9EE728020020FFFFFF0FED150010B9
:101B6000004005409004002070B504000D0000F016
:101B700093F802000B0020002900801859418B4285
:101B800005D901204042C117FFF7F8FE70BD8B4216
:101B9000FAD18242F5D8F7E770B5060000F07CF87C
:101BA000FA2204000D00920000233000002104F00E
:101BB0002FFA001969418D4205D901204042C11711
:101BC000FFF7DCFE70BD8D42FAD18442F5D8F7E70D
:101BD000F0B5C64600B5EFF305833F221340180069
:101BE0001038EFF3108772B61F4D2A68002AFCD018
:101BF000BFF35F8F012211008140884644461B4994
:101C00004C631B4C2678A4463400C440224007D1C4
:101C1000BFF35F8F2A6087F3108804BC9046F0BD45
:101C20004C6A1449820051588C420FD3124BD2583F
:101C300043469E4363461E70BFF35F8F00232B60B5
:101C400087F31088002AE8D09047E6E70B4A9B000C
:101C5000944663441A681A60BFF35F8F00232B60B9
:101C600087F31088D9E7C046280100D0004005401E
:101C7000A804002094040020FC030020D03F05406D
:101C800010B50100024A0348FFF752FC10BDC046E0
:101C9000D07D0010A4040020044A516A00E019001D
:101CA000906A536A9942FAD17047C0460040054095
:101CB000064A536A9942FCD807D1044B02E05A6A9B
:101CC000914202D19A6A8242F9D37047004005409E
:101CD00070B504000D00EFF3108672B61A4A13684F
:101CE000002BFCD0BFF35F8F002D1BD0200000F035
:101CF000D1FD164988420AD0200000F0D3FD012111
:101D0000200000F0B5FD0123A340114A1360114BE0
:101D1000A400E550BFF35F8F00220B4B1A6086F3DF
:101D2000108870BD0B4BA200D5500122A2400A4979
:101D300020000B7893430B70044900F0DDFD002177
:101D4000200000F095FDE5E7280100D0D11B001030
:101D500038600540FC030020A8040020F0B5D646FA
:101D60004F4646462E4CC0B5656A00E00D00A66A97
:101D7000616AA942FAD1AB4248D9EFF3108972B631
:101D8000284C21680029FCD0BFF35F8F264901262B
:101D90008C46097886400F00884661463743FFB27B
:101DA0000F70041D1E49A400204D4E636250840034
:101DB00063510D6A002435421BD04D6A00E02500B6
:101DC0008C6AA2464C6AAC42F9D1AB4224D801D10C
:101DD000524521D8474521D0114B154A1E625E63FA
:101DE0001F2318401E3B8340136063464246012474
:101DF0001A70BFF35F8F00220A4B1A6089F31088B4
:101E000020001CBC90469946A246F0BDAB4201D1D1
:101E1000B242B2D80124F3E70024EAE70124E8E75C
:101E200000400540280100D0A804002094040020B0
:101E300080E200E010B5EFF3108472B60A490B6837
:101E4000002BFCD0BFF35F8F01238340074A084873
:101E5000136202789A430270BFF35F8F00230B6016
:101E600084F3108810BDC046280100D00040054012
:101E7000A8040020024B9C46614489000160704721
:101E80004000003410B50400FFF78AFB0100200079
:101E9000FFF7F0FFFF23A380BFF35F8F10BDC046A5
:101EA00010B50400FFF77CFB01002000FFF7E2FF04
:101EB00001235B42A380BFF35F8F10BDF8B5474697
:101EC000CE4680B54C0003686418033C1A19567856
:101ED00007000D00002E04D128000CBC9046994646
:101EE000F8BD7100891903398846434459788946F9
:101EF000002159705170002D11D07B6832002900EB
:101F0000806898473B68002832D01A1943449D7076
:101F10001178002900D059701670A04600E03500F5
:101F20004B46002BD8D049463800FFF7C7FF041EA8
:101F3000D2D002007B682900B868984763001B195B
:101F4000033B3A68002809D1D318424494701978A9
:101F5000002900D051701D702500BDE74146D318FF
:101F600051189D700A78002A00D05A700C70B3E79F
:101F700042461C199A18A6701378002B00D0637083
:101F800015703500CCE7C04610B583600023CCB295
:101F900043730133047342608373C4730068012C7C
:101FA00006D9421C0133DBB2137003329C42F9D8CC
:101FB000FF2319404B005918002340180338437081
:101FC00010BDC046F0B54E4657464546DE46E0B524
:101FD000467B03687400A419033C1A19177883B070
:101FE00005008946002F1ED1002911D0C07B002892
:101FF0002AD041000918591803394E70EE73002F8A
:1020000006D07900C91903398846002143449970E4
:102010000023300053706F7303B03CBC9046994668
:10202000A246AB46F0BD7900C91903398846591854
:1020300048788246002809D149460029E5D0E87B46
:102040000028D6D1EE73DCE7EE73E1E7420052449C
:10205000033A93465B445A78019200225A704A70C0
:102060006B6802003900A86898472B68002830D1B7
:10207000414650465A4659189A18887010780028D8
:1020800000D048701770D8465746019A002A2DD0C4
:1020900011002800FFF712FF8246002825D0020019
:1020A00039006B68A8689847534659005144033972
:1020B0002B6800281CD04246591898188F70027857
:1020C00094461A196446002C00D04C705146017099
:1020D000B2E75946424659189A188F70107800286E
:1020E00000D0487051461170CFE72B681A19A3E74A
:1020F0005A18984493465046424690705A46127871
:10210000944660461A19002802D04046644644703E
:1021100058468846077057468EE7C046F0B5454694
:10212000DE4657464E46E0B50C0083B0050000235E
:10213000002927D06600477B01683619033E8819BD
:10214000A74233D08278002A1CD053009B18033B4F
:10215000CB181A78A2421FD142781A700023027855
:10216000837043709146002A33D1EA7B002A66D0FF
:1021700053009B18C91803394C70EC73002343704B
:1021800001236F73180003B03CBC90469946A246E9
:10219000AB46F0BD002AE1D053009B18033BCB189F
:1021A0005A78A242F6D142785A70D7E70278019263
:1021B000002A46D1EA7B002A3FD053009B18C91859
:1021C00003394F70EF7300234370019B6B7301233E
:1021D000D8E752004A44033A90468A185778002FAD
:1021E00042D1EB7B002B00D029E14F466E7BEC7394
:1021F000002393704370002EC2D03A006B68310008
:10220000A868984773009B19033B2A68002808D0E8
:10221000D31842449670197800290CD11F703700EA
:10222000AEE74146D31851189F700A78002A00D0B3
:102230005A700E70A4E75170F0E7EF73C3E7EC73C8
:102240009CE71400A44652006244033A90468A1860
:102250005478A146002C58D1EB7B002B00D0F7E03E
:10226000EF7300239370AEE77800C01903388246FD
:10227000514448784B7053706B6883463A00494626
:10228000A86898472B68002800D1A2E04246981819
:10229000524699184A468A70019002000078002838
:1022A00001D0019A487017704F465A46002A28D02C
:1022B00059462800FFF702FE8146002820D0020080
:1022C0006B683900A86898474B465B004B44033B5A
:1022D0009C4600286DD042462B6898186246991893
:1022E0008F7001900078002800D083E04A46019862
:1022F0000270E97B98196E7B002951D1019A76E72B
:102300002B6842469A180192F3E76000484403386C
:102310008246514448784B70537061462200834690
:102320006B68A868644698472968002878D05246A8
:1023300043468A18CB1894701878002800D0507043
:102340004A46C2461A705B46002B50D059462800B8
:10235000FFF7B4FD8046002848D0019C0200210010
:102360006B68A868984743465A004244D31E2968C0
:10237000002844D05246CB188A189C701078002848
:1023800000D0587043461370EB7B8819002B00D1A6
:1023900066E75E00F318C91803394F70EF7360E702
:1023A0004A00944661445B18033B5C70019AEC73ED
:1023B0001EE729684846CA184346CB18987010781B
:1023C000804688194646002E00D05E701770E046A1
:1023D00007E74146524659189A188F70107800281E
:1023E00000D048704946D04611705EE729685346D0
:1023F000CA18C9E74A46487001990A7079E7CA18AD
:1024000053464046CB189870107884466446881925
:10241000002C00D05C70019B1370434601931BE7B6
:102420005346CA1843464846CB189870107800287F
:1024300000D05870019B13704B46019383E703262D
:102440007343C91803394C706E7BEC734F46CFE66B
:1024500003267343C91803394F7001E7304B314AE3
:1024600070B51A60304A314B31491A6010008B68E0
:102470009843FBD12F4C304DAC4209D20322231D8F
:102480000335ED1A9543ED1808CC9847AC42FBD1C3
:1024900000F084F8294A254B1A60254A9368DB012D
:1024A0008033FBD14022264B264C274D9A675A6732
:1024B0001A67DA66AC4215D2230007350833ED1AE5
:1024C000393A9543ED1804E00834FFF7E9FCAC42D3
:1024D00008D063792000002BF6D10834FFF7D2FC36
:1024E000AC42F6D1194D1A4CC022A168280003F065
:1024F000FBFDA560FFF746F800F036FBFFF70CFA8E
:10250000144D154CA54209D203222B1D0334E41AA5
:102510009443E41808CD9847A542FBD170BDC0464E
:1025200000E00040BFCDFBFEFE7F3C0000F000401D
:1025300000C00040C8020020D8020020FFFFFF01B9
:1025400000F00140C0020020C8020020000000206E
:1025500000ED00E0D8020020DC02002000BEFDE714
:102560000FB400B5084883B003F062FE049B002B53
:1025700007D005A91800019102F0A0FE034803F05E
:1025800057FE00BEFDE7C046007E0010107E001022
:1025900010B50148FFF7E4FFF47D001030B50C20C2
:1025A00083B000F04FFBFEF7E5FF00280ED0964BFE
:1025B000964A1A605A609A60DA601A615A619A61A2
:1025C000DA611A62924A5A6203B030BD914CA06738
:1025D00000F040FB0122904B1A60636C012BFCD190
:1025E00003228E4B1A608B4A936B012BFCD1022481
:1025F00005338B4A01218B48009400F0D1FA052362
:10260000894A00940121894800F0CAFA884B5A6827
:10261000FF2A02D8802252005A6080227A4C7F4BD7
:1026200021691201824D1A60002900D0E5E0E02105
:102630007F4B02201A681140802252012A43116008
:102640001968484003210140116004219A68114231
:10265000FCD08022802192012A430901116080224E
:1026600052005A60734B2361734B5968FF2900D89D
:10267000C1E00322684B70481A60012103009A6888
:102680001142FCD0E0251A68154080225201024315
:1026900015601B684B400321194011600221664AF6
:1026A00093681942FCD0802380219B0103430901D8
:1026B00019608021614B490051606361604B5A6829
:1026C000FF2A00D8596080225E4BE16912015C4DFF
:1026D0001A60002905D0606902F066FE01300138F9
:1026E000FDD1E02256490B681A4080235B012B4341
:1026F0001A60802380229B012B4312011A608022E2
:10270000424B52004A60E3614F4B5968FF2900D8A1
:102710005A6080224D4B216A12014B4D1A600029EC
:1027200005D0606902F040FE01300138FDD1E022A1
:1027300045490B681A4080235B012B431A608023B4
:1027400080229B012B4312011A6080235B004B60A7
:102750002E4B3F4A23623F4B5968914201D80132C8
:102760005A6080223C4B616A12013A4D1A6000297E
:1027700005D0606902F018FE01300138FDD1E02279
:1027800034490B681A4080235B012B431A60802375
:1027900080229B012B4312011A608023DB024B60D5
:1027A0001B4B63622D4B5A68FF2A02D880225200CD
:1027B0005A6080222A4BA1691201284D1A60002913
:1027C00005D0606902F0F0FD01300138FDD1E02252
:1027D00022490B681A4080235B012B431A60802337
:1027E00080229B012B4312011A6080235B004B6007
:1027F000124BA361E8E65A603BE7606902F0D4FD42
:1028000001300138FDD112E70C040020006CDC021D
:102810001BB70000008000403CB0004030B00040DA
:10282000002F68590080024000389C1C00C0024004
:1028300030800040001BB7003C80004040597307C7
:102840005480004054B000406080004060B00040C0
:10285000FFFF03006C8000406CB0004048800040E7
:1028600048B00040014B8000C05870470C04002065
:1028700001238340002902D1034A13607047034AB1
:102880001360034A1360F9E780E100E080E200E0B2
:1028900000E100E0024B10309B688000C058704798
:1028A00000ED00E070B50D00EFF3108672B60F4A30
:1028B0001368002BFCD0BFF35F8F0D4B10309B686B
:1028C00084001B590B4A934203D09D4201D0FFF76D
:1028D0005FFE074B9B681D51BFF35F8FBFF35F8F98
:1028E0000022024B1A6086F3108870BD240100D0CC
:1028F00000ED00E0CD010010F0B54546DE4657463C
:102900004E46E0B50D0083B0EFF3108A72B65C4A14
:102910001368002BFCD0BFF35F8F102291468144D7
:102920004A46584B96009B689C59574B98469C4288
:1029300005D0AC424FD0554FE31B2F2B12D9514B32
:102940009B689C51BFF35F8FBFF35F8F00224C4B9E
:102950001A608AF3108803B03CBC90469946A246A0
:10296000AB46F0BD012383409B465A46484B1B684B
:102970001A4000925A46474B1A60BFF35F8FFDF72B
:1029800072FC0190002803D0814501D0FFF700FEC2
:102990000123220006209A431300DB1B5B414449BC
:1029A0005943090D93688C4610569D420AD151E057
:1029B00043001B1806209B00FB1899681856A94273
:1029C00011D01A000028F3DA009B002B05D15A46DB
:1029D000304B1A60B3E71C00B1E75A462E4B1A6021
:1029E0002B4B1A60ABE7002825DB42001118890049
:1029F0007D188846A9689960E979D97106216956D8
:102A00009971A9797F2913D8AD88F91A6D052D150B
:102A100045444919E0250905490D2D0229439980AE
:102A200012181E4B9200BF181A781870BA71CBE7B3
:102A3000BD210902F3E70199002913D1002A0FD023
:102A4000FF20907116489080144A10789871634660
:102A50001370B9E713000028C7DA019A002A01D1E0
:102A60004446F1E70F4A1049D21A083A5002400D85
:102A7000014399800D4952080A43DA80A4E7C04611
:102A8000240100D000ED00E0CD0100105002002034
:102A900000E100E080E100E080E200E0A704002027
:102AA00000BDFFFF8A02002000F0FFFF00F8FFFFDB
:102AB000AAAA0000F8B5012504000543FDF7D3FBE1
:102AC000EFF3108672B6214A1368002BFCD0BFF3D7
:102AD0005F8F1F4A2100891A4941224B4B431B0D2E
:102AE0001C4980008F685BB23F58AF421CD0062162
:102AF0005156994226D012215156994224D01E2176
:102B00005156994214D02A2151560320994210D08F
:102B1000114A11781370A171BFF35F8F00220B4B24
:102B20001A6086F31088F8BD8A680C491150EFE7E7
:102B300002204100091889005218FF2191710849AB
:102B40009180E5E70020F4E70120F2E7240100D0BE
:102B50005002002000ED00E0A7040020CD0100108D
:102B600000BDFFFFAAAA0000F0B500220324FF2742
:102B7000802620003D00094B11009C461040C000FB
:102B80008540A14361440B680132AB433500854069
:102B90002B430B60202AECD1F0BDC04600E400E0DE
:102BA000F8B504000C201E0017000D0002F0FCFB1D
:102BB0004201121A9101891AC900091889013800C5
:102BC00002F0F2FB069B36041B031E432368002B16
:102BD00021DB184BE21853425A4180235B019C468B
:102BE00052421A40144B62441A60144B1A60144B40
:102BF000170099688F43FBD1C023221D9B0113430B
:102C000021222560A0601A602268002AFCDA0822CE
:102C1000E6601A60F8BD3F2322681340AB42D8D16A
:102C2000A3681B051B0D8342D3D1E368002ED0D1CE
:102C3000F0E7C0460040FDBF00E0004000F000406B
:102C400000C0004080239B001843014BD8627047AE
:102C500000800540AA23064A1B0113602F23054963
:102C6000D360054B19605368002BFCDA7047C046EF
:102C70000040024000B0FA00006002409A4200D2D8
:102C8000885470477047C04610B5002801D003F043
:102C900077FA10BDF0B557464546DE464E46E0B5DC
:102CA00085B0984610AB1D78139B93469A46022335
:102CB000149A0F00134006000F9C12990193002BE9
:102CC0002DD1013313409C465346002B66D18C42D4
:102CD0000DD21F2C00D912E10E9B30201B1902E0EF
:102CE0000133202C03D001341870A142F8D8634678
:102CF000002B14D0A24512D90E9B30201B191F2C7B
:102D000021D8AC461500524602E00133202C17D0E2
:102D1000013418709442F8D192462A006546D306D1
:102D20002ED5530519D4002C11D1119B102B00D195
:102D3000D9E0022B1FD10E9960330B7001241AE0E9
:102D400092462A006546D3063ED5530505D4A142D6
:102D500000D19FE0544500D19CE0119B102B65D021
:102D6000022B06D11F2C65D862210E9B1B191970EE
:102D700001341F2C5ED830210E9B1B1919700134B1
:102D80001F2C57D8002D1BD1530700D570E0130717
:102D900050D520230E990B55013415E06346002BC6
:102DA0006BD0002D00D070E00C2313426DD18C420B
:102DB000A0D21F2C90D953462024202BC3D8AEE795
:102DC0002D230E990B550134930736D05B460393A0
:102DD0001A000E9B029499464B46013C551C185D07
:102DE00039004346B0472A00002CF5D1039A029BD4
:102DF000944663441D00019B002B0FD05B46EB1AE9
:102E000053450BD22A005D46541C4346390020200E
:102E1000B0472200631B5345F6D32500280005B0B8
:102E20003CBC90469946A246AB46F0BD930641D5C0
:102E30001F2C52D95D46930712D1544538D25B46B8
:102E400053441B1B0F941C000F9B5A469946551C5C
:102E5000434639002020B0472A00A542F7D14C460E
:102E6000002CC8D00E9B039502942A009946B3E724
:102E70002B230E990B550134A6E78C4200D34EE765
:102E80001F2C00D828E7202449E701235B429946FC
:102E9000CA448CE7631E002B15D1119B102B19D04F
:102EA000022B00D147E730230E9901240B7069E70C
:102EB0005D46D5E71F2C00D986E778210E9B1B19AC
:102EC0001970013455E71199023C1029AED01C004D
:102ED0000B0045E793060DD5002458210E9B1B19C6
:102EE0001970013445E7930604D558230E9901243F
:102EF0000B7040E778230E9901240B703BE72024E8
:102F0000F5E6C046F0B54546DE4657464E46E0B5C6
:102F10009BB09846259B249C1D00089009910A921D
:102F20000C9300220023200029000B9402F0F0FCF7
:102F3000002800D0A7E10B9A0C9B92469B46802369
:102F4000289ADB001A400E9201D106232693802393
:102F5000289A1B011A4056465B460D92334300D116
:102F600061E15B465800CC4B400D9C46604402F04A
:102F7000F5FCCA4ACA4B02F088FCCA4ACA4B02F0A6
:102F80005DFC5B46C94A1B031B0B1A4304000D0082
:102F9000C74B11005046002202F047FCC54AC64B01
:102FA00002F073FC02000B002000290002F046FC36
:102FB00002F0ECFC814602F0D1FCC04AC04B040098
:102FC0000D0002F062FC0022BE4B02F037FC02F062
:102FD000DDFCBD4A0600BD4B2000290002F055FC77
:102FE000040030000D000F9602F0B8FCB84AB94B4F
:102FF00002F04BFC02000B002000290002F015FC3F
:1030000002000B0006000F0002F03FFC320004003B
:103010000D003B003000390002F010FC002210903F
:103020001191AD4B2000290002F011FC0022AB4BA6
:1030300002F004FC02000B002000290002F007FC53
:103040000022A74B02F0FAFB02000B00200029002F
:1030500002F0FDFB0D008021040032003B00002047
:10306000C90502F0E2FB02000B002000290002F07B
:10307000E5FB02000B001098119902F0E8FB00221A
:103080008A4B02F0DBFB974A0F9B94466344002275
:103090001B0502F0FAFB05000C0002000B00504675
:1030A000594602F035FC00280BD001235B429C46B8
:1030B000280021000022894BE14402F0C8FB0500F2
:1030C0000C004B46C62663339E42B6410D9B7642AA
:1030D0000436002B00D0BCE0279B00279E4200D284
:1030E0009F1B0223289A1A400D9203D0734273410A
:1030F0005B421F404B46002B07D0504659462A00E2
:10310000230002F0A4FB82468B46002200230B988A
:103110000C9902F0FDFB002803D0802109065944D8
:103120008B4652465B465046594602F004FC002846
:1031300000D044E101226C4B52425046594602F005
:10314000E7FB002800D0D7E0289A684B039713408C
:103150000493269B524602935B4609990092019381
:1031600008980A9A434600F0FFFC0200002E52D055
:103170002020289B089C034059424B415B42184049
:10318000531C45309A4609994346A0474B46DA17E7
:103190009D18DB0F9946731E55409B46002412AEC6
:1031A00002E03C00202F0DD028000A2102F0FCF89C
:1031B000671C30313419217028000A2102F0F4F81C
:1031C000051EEED1052306935B4605930023049369
:1031D0000A3303934B4601970096099F089E02937A
:1031E0005246434639003000FFF754FD0D9B020064
:1031F000002B10D00A99431A279898420BD9894678
:103200000500434639002020541CB0474B4622009D
:10321000E31A9D42F5D810001BB03CBC904699467D
:10322000A246AB46F0BD0D9B55465C46002B27D011
:1032300000239946269B4B4500DDB1E000232693F1
:103240008023289ADB001A430023289200269946FF
:1032500042E723002B43EDD0254A264B50465946E2
:1032600002F05CFB002800D09FE0269B002B00D1E1
:1032700032E70E9B5A1E9341269AD31A26932BE7C8
:103280000426994628E78022120694460C9BA24603
:1032900063449B4653E6C04601FCFFFFFB799F5009
:1032A0001344D33FB3C8608B288AC63F0000F03F69
:1032B0000000F83F61436F63A787D23F71A379098C
:1032C0004F930A400000E03F1655B5BBB16B02407A
:1032D000EF39FAFE422EE63F00002C400000244069
:1032E00000001840FF030000FFFFEFFFFFF7FFFFA4
:1032F0002D431CEBE2361A3F0A9A289B14009B07C9
:1033000015D1042F13D9B2464646151FED19BB46F9
:10331000099F0B95330039002020089D541CA847B5
:103320000B9B22009C42F5D1B0465F4656464D4B62
:1033300049469A464346B94622000425A346B0466C
:103340001F000B915346013D541C585D09993B00E9
:10335000089EB0472200002DF4D13B005C460B9A3A
:10336000464698460D9B4F469146221D002B00D1A4
:10337000FCE60A9BD31A9F4200D8F7E6B3464646BE
:10338000BA46099F330039002020089D541CA847E5
:103390000A9B2200E31A9A45F4D8B0465E46E5E659
:1033A0004A469B1A013B26934AE700222E4B504681
:1033B000594602F0ADFA002800D03BE755E70A9BDA
:1033C000289A9A46920717D1032F15D9B2461A00A8
:1033D0004646DC1EE419BB46099F0B9433003900B6
:1033E0002020089C551CA0470B9B2A009D42F5D12C
:1033F000B0465F465646AA461C4B49469B46434646
:10340000B94652460324B0461F000B915B46013C6F
:10341000551C185D09993B00089EB0472A00002CF6
:10342000F4D13B000B9A4F46914652464646984689
:103430000D9B0332002B00D198E60A9BD31A9F42C2
:1034400000D893E6B3464646BA46099F3300390092
:103450002020089D541CA8470A9B2200E31A9A4585
:10346000F4D89AE7F87F001080842E41F47F001092
:10347000F0B5DE4657464E464546E0B597B00500E6
:103480000E0093461F00209A219B1000190002F0A5
:1034900052FA002800D0AEE2209821990122C54BB3
:1034A000524202F035FA002800D034E120982199E8
:1034B0000122C14B524202F039FA002800D0C1E08B
:1034C000209821990022BD4B02F030FA002800D04C
:1034D00008E1209821990022B94B02F019FA00283E
:1034E00000D0FFE0209821990022002302F010FA7A
:1034F000002800D074E200230D938023249ADB007F
:103500001A40904600D0BAE10023AE4C06930794CF
:103510000EAB06249A462098219902F037FA0990BA
:1035200002F01CFA02000B002098219902F07DF9AC
:10353000069A079B02F0A9F90A900B9102F04AFA49
:1035400081460C9002F006FA02000B000A980B99D3
:1035500002F06BF900229C4B0A900B9102F0E6F905
:10356000002800D1E5E14B46013318000C9302F02E
:10357000F1F9069A079B02F0D1F9002800D0FBE18F
:10358000002C00D09CE1099C200002F0E7F9020029
:103590000B002098219902F048F900228A4B0690EE
:1035A000079102F0B5F9002800D1D5E14346202B60
:1035B00000D112E15C1C099B0A211800994601F018
:1035C000CBFE424653463031995448460A2101F019
:1035D000C3FEA046814600281ED05346A846BA46E0
:1035E0004D461F00B14600E03400202C00D162E2BD
:1035F00028000A2101F0B0FE661C30313C19217010
:1036000028000A2101F0A8FE051EEDD13B00454629
:103610005746B0469A464E460323249A1340012B40
:1036200000D1B1E142462024202A00D1DCE00D9AED
:10363000002A00D135E242465146541C40462D2214
:103640000A54D1E0249B5B0700D5ADE05F4B9A465E
:10365000032398465B460693249B9B0718D1239B24
:10366000434500D84EE25B441C004346E41AB94689
:103670005A4637002E002500541C4B4639002020A6
:10368000B0472200AC42F7D135003E004F460694C9
:10369000B14644465646BA462F00069A013C551C90
:1036A000305D53464946B8472A00002CF6D1069BA8
:1036B0003D0043441A00249B9B0724D55B46239975
:1036C000D31A99421FD92E00D0464F460D004346CB
:1036D00039002020541CB0475B462200E31A9D426B
:1036E000F5D810E0249B5A460493239B31000393A2
:1036F000229B28000293209B219C009301943B0075
:10370000FFF700FC0200100017B03CBC9046994641
:10371000A246AB46F0BD249BD8469B0718D1239BFD
:10372000042B15D95B461C1F239BB8469C4664445A
:1037300037005A462E002500541C434639002020ED
:10374000B0472200AC42F7D135003E004746A046C4
:103750001F4BB9464246370004249A462E00534672
:10376000013C551C185D39004B46B0472A00002C1F
:10377000F5D14246249B350004323E009B07C2D55A
:103780005B462399D31A9942BDD93700C8462E000B
:103790000D00434639002020541CB0475B462200F0
:1037A000E31A9D42F5D8AEE70A4B9A4604239846A1
:1037B00050E7C046FFFFEFFFFFFFEF7F65CDCD4134
:1037C00065CDCDC180842E410000E03F088000100F
:1037D000F87F001000800010A2460323249A1340B3
:1037E000012B00D1CEE02024D846002B17D1239BFB
:1037F0009C4214D25B441B1BB8465A463700A14674
:103800002E001D00541C434639002020B0472200E2
:10381000AC42F7D135003E004746A0464C464346F1
:103820004246A146B84637002E0006935346013C57
:10383000551C185D39004346B0472A00002CF5D1CD
:1038400006994B468C4663441A00249B35003E0083
:103850009B0700D457E75B462399D31A994200D8B7
:1038600051E737002E000D00434639002020541C3C
:10387000B0475B462200E31A9D42F5D843E7229BFE
:10388000092B00D85BE10EAB9A46302352461370E9
:1038900001229046229B2F325C1E4146203B50461F
:1038A00005E0013C425401319C4200D1EEE0092C7C
:1038B000F7D10022A84B88468246069207932AE653
:1038C0004346202B89D0631E069301230C9C43445E
:1038D00020000A21994601F067FD534642463031E7
:1038E000995420000A2101F05FFD041E00D122E15D
:1038F000A84625004C46B9465746B24612E0069BFC
:103900002800013B0A21069301F04EFD661C303170
:103910003C19217028000A2101F046FD051E00D146
:10392000CFE03400202CEAD156464546BA464F46F1
:1039300053E700220A980B99884B01F0E9FF002811
:1039400000D01DE60C9B002B02D0DB0700D417E64D
:103950000C9B01330C9313E60022069807997F4BCA
:1039600001F0E4FF002800D020E60123A446234014
:103970009C446346099319E6099B0133099300238C
:103980000C93FDE520239846239B002B00D1BFE03C
:103990000D9B002B03D1249A0C33134202D0239B9E
:1039A000013B2393239B434500D8B1E0424630239B
:1039B000202A00D1B1E0424650462399541C83543A
:1039C0008C4200D1A1E02200202CF7D1202399467F
:1039D0005B46B8468246370006935A462E0025E7D6
:1039E000209A219B0020002101F01FFF012320903D
:1039F00021910D9381E5249BD8469B0718D1239BE9
:103A0000032B15D95B46DC1E239BB8469C466444B9
:103A100037005A462E002500541C4346390020200A
:103A2000B0472200AC42F7D135003E004746A046E1
:103A30004B4BB9464246370003249A462E00534664
:103A4000013C551C185D39004B46B0472A00002C3C
:103A5000F5D14246249B350003323E009B0700D43B
:103A600051E65B462399D31A994200D84BE63700BA
:103A7000C8462E000D00434639002020541CB04794
:103A80005B462200E31A9D42F5D83CE6354BE20046
:103A90009B181A685B680692079320238246984613
:103AA00039E5249A52073BD542465146541C4046BC
:103AB0002B220A5498E63B00454657464E469A4606
:103AC0008BE64546B0465646BA464F464346202BFF
:103AD00000D182E6069B40461A004244110054463B
:103AE0003022002B29D0431C2254202B00D173E616
:103AF00018008B42F7D1A2465A1C904651462E22FE
:103B0000CA5453E55B460693C2E5239B824698461A
:103B100042460123202A00D089E52024D8467EE6AB
:103B2000249A4446120700D45EE6202251464046BD
:103B300001340A5458E6C846C8E74346DCE7DA00D1
:103B4000084B9B185C681B680693079400239846F3
:103B50000EAB229C9A46DEE465CDCD410000E03FED
:103B6000F47F001010800010F0B557464E464546D1
:103B7000DE46E0B597B00792012206000F002098BC
:103B8000219998465242CF4B01F0D0FE00284DD0EB
:103B9000249B5B0700D541E1CB4B9A4603239B4610
:103BA000079A249B14009B0711D1239B9B450ED29F
:103BB000190013008C4663441D005B46ED1A541C2B
:103BC000434639002020B0472200AC42F7D1B94625
:103BD000220037005D465646A246013D541C705DEA
:103BE00043464946B8472200002DF6D15246249B51
:103BF0003E005A444F469B0710D507992398531A05
:103C000098420BD989460500434639002020541CB0
:103C1000B0474B462200E31A9D42F5D8100017B07A
:103C20003CBC90469946A246AB46F0BD0022209887
:103C30002199A64B01F07AFE002800D0F3E02098ED
:103C400021990022A24B01F063FE002800D0EAE097
:103C5000209821990022002301F05AFE002800D06C
:103C600092E100230D938025249BED001D4000D0A0
:103C700017E10023974C089309940EAB06249B464A
:103C80002098219901F082FE81460C9001F066FE99
:103C900002000B002098219901F0C7FD089A099BAA
:103CA00001F0F3FD0A900B9101F094FE824601F0C1
:103CB00051FE02000B000A980B9901F0B6FD00229C
:103CC000854B0A900B9101F031FE002800D148E1AC
:103CD00001239C46E244504601F03CFE089A099BB1
:103CE00001F01CFE002800D09CE1002C00D006E171
:103CF0000C9C200001F032FE02000B00209821995C
:103D000001F093FD0022744B0890099101F000FE30
:103D1000002800D176E1202D00D1BAE00C9B0A21C9
:103D20001800994601F018FB5B463031595548465A
:103D30000A2101F011FB6C1C8146250000281AD0D5
:103D40004D46BA46B1465F4600E03400202C00D113
:103D500003E128000A2101F0FFFA661C30313C190A
:103D6000217028000A2101F0F7FA051EEDD1350077
:103D7000BB464E4657460323249A1340012B00D1DD
:103D80000EE12024202D0BD00D9A002A00D034E122
:103D9000249A520700D46FE12B2259466C1C4A55D5
:103DA000079A1500002B12D1239B9C420FD21900B9
:103DB00013008C4663441B1BA1461C00551C434644
:103DC00039002020B0472A00A542F7D14C46A24630
:103DD000A9462A005B46013C551C185D3900434644
:103DE000B0472A00002CF5D14B4653441A00249BBF
:103DF0009B0700D412E707992398531A834200D3F4
:103E00000CE789460500434639002020541CB04782
:103E10004B462200E31A9D42F5D8FFE62F4B9A4607
:103E200004239B46BCE6209A219B1000190001F058
:103E300082FD00281AD1209821990122284B524254
:103E400001F066FD002811D1249B079A0493239B5F
:103E500039000393229B30000293209B219C009306
:103E600001944346FFF74EF80200D7E6249B079AD9
:103E70000493239B39000393229B30000293209BE1
:103E8000219C009301944346FFF7F2FA0200C5E635
:103E900083460323249A1340012B00D17FE0202482
:103EA0007EE7229B092B00D8F2E00EAB9B46302325
:103EB0005A461370229B01255C1E3022203B594636
:103EC00015E0C046FFFFEF7F0880001065CDCD41B3
:103ED00065CDCDC180842E410000E03F0080001000
:103EE000FFFFEFFF013C4A5501359C427BD0092C76
:103EF000F8D100226C4B8B4608920993C0E6202D26
:103F0000C7D06B1C50460A21994601F04DFA5B461A
:103F10003031595550460A2101F046FA013C82469B
:103F2000002800D1B2E04B465546B146BA465F463E
:103F300011E09B4628000A215E1CBB4401F034FAC4
:103F40005B463031197028000A2101F02DFA013C3E
:103F5000051E76D03300202BEBD1BB464E4657468C
:103F600097E700220A980B99504B01F0D1FC0028EA
:103F700000D0BAE65346002B02D0DB0700D4B4E6EB
:103F800001239C46E244B0E6209A219B00200021B8
:103F900001F04BFC0123209021910D9363E6202535
:103FA000239B002B46D00D9B002B03D1249A0C336E
:103FB000134202D0239B013B2393239BAB4239D96D
:103FC0003023202D3AD05946239A6C1C4B559442ED
:103FD0002ED02500202CF8D12023079D8B469A4611
:103FE000A9462A00F6E6324BE2009B181A685B6885
:103FF0008B4608920993202542E62D2259466C1CD7
:104000004A55CDE6002208980999284B01F08EFC0C
:10401000002800D07FE60123A44623409C44634649
:104020000C9378E64B4601330C9300239A465CE6EA
:104030008B46239D0123202D00D0A5E62024079D3B
:10404000C5E63500BB464E465746202D00D120E739
:10405000611930222B00002C09D058466B1C4255A8
:10406000202B00D114E71D008B42F7D183462E226E
:1040700059465D1CCA544EE6249A2C00120700D4FF
:104080008EE62022594601344A5589E64D46DCE742
:10409000DA00074B00259B185C681B68089309949D
:1040A0000EAB229C9B46EBE565CDCD410000E03F89
:1040B00010800010F0B5DE4657464E464546E0B546
:1040C000A9B01E00329B90460A93BF4ABF4B83465D
:1040D0008A461A60002968D0D1460025DA46307831
:1040E00000280BD0013625281BD02A00434649461C
:1040F000D04730786C1C25000028F3D1D3462A0025
:10410000CA46454501D343465A1E43465146002000
:10411000D847280029B03CBC90469946A246AB46F9
:10412000F0BD102330789B460E3B9C460300203B9D
:10413000721CDBB20027A64C1100102B0DD89B007F
:10414000E3589F46012316001F433078721C03007A
:10415000203BDBB21100102BF1D90300303B092BBF
:1041600000D8AEE100239B462A2800D1CFE10024ED
:104170002E2800D1BDE10300683BDBB2122B00D931
:10418000D3E3944A9B00D3589F46042316001F4351
:10419000DBE7634616001F43D7E75B4616001F4365
:1041A000D3E7082316001F43CFE78B4B9B4693E7CB
:1041B00080235B0070781F434E1C0300253BDBB25D
:1041C000532B92D8854A9B00D3589F4670786C2811
:1041D00001D100F0C0FC80235B001F434E1CECE7C4
:1041E00080239B0070781F434E1CE6E77078682898
:1041F00001D100F019FD80234E1C1F43DDE7462846
:1042000001D100F058FC07220A9B0497073393431F
:10421000013294469C4462460A925A4602940392A2
:104220005C681B682A000093019449464346504647
:10423000FFF71EF9050052E72A006C1C4346494669
:104240002520D04725004AE70A9B1A1D1B680C92BF
:104250000A931878002C00D0ABE3002801D100F0BD
:10426000A2FF02211A00494201239C4643460890BE
:104270000B9307E00A98634680469B1A43445B18F9
:10428000002B03D001321378002BF3D10B9B08983D
:1042900098460A9BD31A08938023DB003B400B937C
:1042A00003D0089BA34200D9089402231F4001D1E8
:1042B00000F0DBFC002801D100F0BCFC0B9B002BC4
:1042C00001D000F062FE0A9B2A005C1B23005446CA
:1042D000B2464E46B946474698463B003100551C0B
:1042E000A0474346585D2A000028F6D1B8464F46FD
:1042F000B1465646A246002F01D000F09BFC0C9B15
:104300000A93ECE60A9B1A1D1B689346002B00D10A
:1043100042E3212217430A970F2020A90B94002281
:10432000089184460C0002E020290CD00A00614666
:104330001940CFB238003730092900D80738511C4E
:10434000A0541B09F0D10B9C0A9B019106930823F2
:1043500005930833039300230293089B2A000093DC
:104360000494434649465046FEF794FC5B460500DC
:104370000A93B4E60A9B6C1C04330B940893BB07A6
:1043800000D478E30A9B2A00187849464346D04770
:104390005B465D44012B01D800F07EFE2B005746A2
:1043A0004D46B146464698460B9A541C33002900A8
:1043B0002020B84722004445F7D1B046BA464E46C1
:1043C000A946250073E3C046B54000107C040020D8
:1043D000147E0010587E0010852C0010A47E001062
:1043E000782800D1ECE2582801D100F067FC6F2852
:1043F00001D100F051FD622801D100F04FFE1023E1
:104400003A009A430B92692801D000F039FF7B05EE
:1044100001D500F02BFD80239B001F40F73BFF3BA5
:104420000C93002F01D000F0C3FC80230B9A5B009B
:104430001A40130094460A9A04320D92002B01D0C0
:1044400000F0CAFD0B9B5B0601D400F0BCFD0A9B8B
:104450001B78DA1798185040DA0F0A92002B08D10F
:104460000B9A1033110099430B91520501D500F0BE
:10447000A2FE0B9B61279B0600D541275A4620AB25
:10448000FFB20E950F94B34608930A3F644610920C
:104490000C9D1E000CE03033DBB2621C335500284B
:1044A00001D100F017FC202A01D100F013FC140008
:1044B000290000F079FFCBB20929ECD9DB19DBB276
:1044C000EBE70023010001E0160001329800C0185C
:1044D000400040181178030008003038303B0928AC
:1044E000F2D908009B46B11C002416002E2800D0EB
:1044F00041E680237078DB001F430300303B092B2B
:1045000015D92A2800D1DAE20E00013133E60A99E2
:104510000B1D09688B46002904DA02210F43594616
:1045200049428B467078B11C0A9316001FE60300BF
:1045300000E03100A00000194000C0184B7830386E
:104540001A00303A4E1C0400092AF2D91800023130
:1045500011E6202302009A43472A02D180231B013F
:104560001F4302239843452801D11E331F430722CE
:104570000A9B07339343013294469C446246196870
:104580005868089109900A9203000A000B910C9058
:104590000898099901F0CFF9002800D09BE2012288
:1045A000E34B52420B980C9901F0C0F90122E14B08
:1045B0005242002800D0D5E20B980C9901F0A8F9DE
:1045C000002800D0A2E3002200230B980C9901F0F0
:1045D0009FF9002801D000F055FD0B9A0C9B089222
:1045E0000D938023DB003B40179300D106248023EA
:1045F0000D9A1B013B400E93130008990F910B433A
:1046000001D100F0B6FCCC4B50009C46400D6044FC
:1046100001F0A4F9C94ACA4B01F037F9C94ACA4B9B
:1046200001F00CF90D9A109011911303C74A0F99DC
:104630001B0B1A431B921A9100221A981B99C44B08
:1046400001F0F3F8C34AC44B01F01FF902000B005C
:104650001098119901F0F2F801F098F90F9001F01B
:104660007DF9BE4ABE4B1090119101F00EF9002267
:10467000BC4B01F0E3F801F089F9BB4ABB4B169043
:104680001098119901F001F910901191169801F00C
:1046900065F9B74AB74B01F0F8F802000B00109823
:1046A000119901F0C2F802000B001090119101F075
:1046B000ECF8149015911098119902000B0001F07C
:1046C000BDF800221E901F9114981599AA4B01F075
:1046D000BEF80022A94B01F0B1F802000B001498BB
:1046E000159901F0B4F80022A54B01F0A7F80200DB
:1046F0000B001498159901F0AAF8109A119B1490C8
:10470000159180210020C90501F08FF802000B00EF
:104710001498159901F092F802000B001E981F9949
:1047200001F095F80022894B01F088F8169B1A00D9
:10473000944B9C46624413051D9300231C931C9AC2
:104740001D9B01F0A2F81490020016910B0008982E
:104750000D9901F0DDF800280AD00F9B1498013B59
:104760000F9316990022854B01F071F81490169161
:10477000C6230F9A633293429B415B4204331093EA
:104780000E9B002B1DD0169B149A134301D100F0F1
:10479000C1FC7D4A7D4B08980D9901F0BFF80028B7
:1047A00009D000227A4B08980D9901F0B1F8002841
:1047B00001D000F0AFFC002C03D0179B5A1E934190
:1047C000E41A00230E93109B9B4502D95A46D31A34
:1047D0000E9302233B40179306D0109B5A4253413D
:1047E0000E9A5B421A400E920F9B002B07D008983E
:1047F0000D99149A169B01F02AF808900D91002249
:1048000000230B980C9901F083F8002805D0802034
:10481000000684460D9961440D910D99089A0B008C
:10482000089801F088F8002801D000F0E2FC01228D
:10483000404B524208980D9901F06AF8002801D0C7
:1048400000F075FC534B089A3B4004930E9B029476
:1048500003930D9B49460092019350462A0043461C
:10486000FFF782F90200109B002B00D170E120209D
:1048700007403B0059424B4100275B42511C184006
:104880000B91434649464530D0470F9A109BD117AC
:10489000013B54180D93D20F20AB0E954C403D00B8
:1048A0000C9208930F961F0002E03500202E0DD0C9
:1048B00020000A2100F078FD6E1C30317D1929702E
:1048C00020000A2100F070FD041EEED1052306939E
:1048D0000D9B32000593002304930A3303930C9B32
:1048E00001920293089B0B9A009349464346504617
:1048F0000E9D0F9EFEF7CEF9179B0200002B00D1F4
:1049000026E1431B9B4500D822E15C465746531CD9
:104910009A46494643462020B8475246531B9C427C
:10492000F5D8BA461500FFF7DAFB0E0045E4C0469D
:10493000FFFFEF7FFFFFEFFF01FCFFFFFB799F50C1
:104940001344D33FB3C8608B288AC63F0000F03FB2
:104950000000F83F61436F63A787D23F71A37909D5
:104960004F930A400000E03F1655B5BBB16B0240C3
:10497000EF39FAFE422EE63F00002C4000002440B2
:1049800000001840FF0300002D431CEBE2361A3FE5
:1049900080842E41FFF7FFFF10223900914311322E
:1049A00011430A917A0500D4B6E420AB00210893A4
:1049B000CAE4002801D100F0F6FB611E1A0053E49E
:1049C00080231022DB003B400C920C2297430B9774
:1049D0003A00002B02D001239A430B9280270B9BB5
:1049E000BF001F40692800D11BE5642800D118E5ED
:1049F000002F00D07CE280230B9A5B001A4013004A
:104A000094460A9A04320D92002B00D050E30B9B7F
:104A10005B0600D445E30A9B1878002807D10B9A5F
:104A20001023110099430B91520500D5BFE30B9B56
:104A300061279B0600D5412720ABFFB20A950E9453
:104A40000F9608930A3F65460C9C1E000AE030331F
:104A5000DBB26A1C7355002800D111E2202A00D174
:104A60000EE21500210000F09FFCCBB20929EED91F
:104A7000DB19DBB2EDE75B46012B00D8A7E36B1E29
:104A80009B4433005E469B4601E0250001344346CB
:104A90002A00494620202700D047B442F5D15E467F
:104AA00002350A9B3A00187849464346D047089B8E
:104AB0000A93FFF714FB20231F43FFF7A4FB0A9A76
:104AC000B0781468F11CE343DB171C40131D0A93F4
:104AD0000236FFF750FB2C00BB0710D15B46032BBF
:104AE0000DD9EC1E23002A005B4408934346494637
:104AF0002020541CD047089B22009C42F6D103235F
:104B00000893DC4B22000B932B003D001F00089BF9
:104B10000B98511C013B0C910893C05C49464346DD
:104B2000D047089B0C9A002BF2D13B002F00E21CCF
:104B30001D00BB070CD5531B9B4509D95F46541C70
:104B4000434649462020D0472200631B9F42F6D8A7
:104B50001500FFF7C4FAC0239B00B0781F4303364B
:104B6000FFF72BFB0B980C9900F0D2FE002800D029
:104B7000CCE07B0700D46BE2BF4B089304230C937B
:104B80000B95BB071CD10C9B9B4500D82DE35A46C7
:104B90005419E41A33002A004E46A94655469A464F
:104BA0000D97571C434631002020A8473A00BC42CD
:104BB000F7D15346AA464D46B1461E000B970D9FAE
:104BC000330056469A460B9A0C9C0D95089B013C67
:104BD000551C185D49464346B0472A00002CF5D1C4
:104BE00053460B99B2468C461E000C9B0D9D6344A8
:104BF0001A00BB07ACD5531B9B45A9D933005C46B3
:104C00004E4657469946531C9A463100434620204B
:104C1000B8475246531B9C42F5D84B46BA46B1465C
:104C200015001E00FFF75BFAC023B0781F43033660
:104C3000FFF7C3FA089B9B4501D8FFF760FB5A4674
:104C40005419E41A33002A004E4657469946013556
:104C5000434631002020B8472A00A542F7D14B46F1
:104C6000BA46B1461E00FFF74AFB089A531C93450B
:104C700000D8A8E25B465B199B1A08971F00330017
:104C80002A004E46A14654469A4601354346310015
:104C90002020A0472A00BD42F7D15346A2464C46E9
:104CA000B1461E005B460133089F08930A9B1878A3
:104CB000002801D0FFF702FBFFF721FB0C233A008D
:104CC0009A4314331A430B927B0500D4C7E0102398
:104CD0000C9380E6109B5E469B460E9D0F9C0B9BA3
:104CE000049406935B4605930C9B03930A9B0293E3
:104CF000089B019200932A00434649465046FDF71F
:104D0000C9FF0D9B05000A93FFF7E9F90B95BB0757
:104D10001BD15B46042B00D8B0E233002C1F2A00C5
:104D20004E46A94655469A465C440897571C43464A
:104D300031002020A8473A00A742F7D15346AA469F
:104D40004D46B1461E000B97089F4C4B0424089318
:104D500033004E46B94657469A460B9A0C95089B27
:104D6000013C551C185D31004346B8472A00002C11
:104D7000F5D15346BA464F460B9AB1460C9D1E00DC
:104D80000432BB0700D4E3E6531B9B4500D8DFE6A3
:104D900033005C464E4657469946531C9A463100AE
:104DA00043462020B8475246531B9C42F5D834E76F
:104DB00007220A9B07339343013294469C44624680
:104DC0005F680A921A68FB17189319931898199933
:104DD0000300534012930B007B4013939446129AA6
:104DE000139B121A8B41129213936246FB0F14937A
:104DF0003A4307D10B9A1023110099430B915205A6
:104E000000D5E7E10B9A6123920600D54123DBB27E
:104E100020AA0A3B0E950F9410960027129C139D12
:104E200008920D930C9E0CE03032D2B2089C7B1C91
:104E3000E255020004000D000A433FD0202B3DD074
:104E40001F00320000232000290000F0EFFAD2B248
:104E5000092AE9D90D9B9C466244D2B2E6E7802339
:104E60009B001F40F13BFF3B0C93C1E50A230C93D1
:104E7000B1E5C046F47F001000800010F87F0010FC
:104E80000A9D0E9C0F9E0B9B049406935B46059314
:104E90000C9B039300232AE708230C938023DB0059
:104EA0003B40642800D090E53A000B97002B00D0DF
:104EB00091E58027BF001740FFF7B3FA12941395CE
:104EC000109E0F9C0E9D0B9A049406925A460592D2
:104ED0000C9A01930392149A0292089B2A00009361
:104EE000494643465046FDF7D5FE0500FFF7F7F863
:104EF00007220A9B07339343013294469C4462463F
:104F000003CB03000A920B4307D10B9A103317000F
:104F10009F430B97520500D563E10B9A61239206DC
:104F200000D54123DBB220AA0A3B0E950F9400273F
:104F300008920D930C9C109615000CE03032D1B203
:104F4000E95518007A1C3100334300D185E0202A4E
:104F500000D182E017002200002300F067FAD2B2ED
:104F600003000E00092AE9D90D998C466244D1B29A
:104F7000E6E70E9B002B00D0C7E00D9B1491169323
:104F80000423109300230F931BE40A9B64195B1BFB
:104F90000A9333002A004E46B94657469A4608E01F
:104FA00043463100551CB8470A9B585D002862D023
:104FB0002A00A242F4D153461500BA464F46B146E4
:104FC0001E00FFF798F90B9B1B0600D4F7E00A9B25
:104FD00000229B5EFFF73DFA0A9B1B68DA179818C0
:104FE0005040DA0F0E92002B06D10B9A10331100AD
:104FF00099430B9152051FD40B9A6123920600D559
:105000004123DBB220AA0A3B08920A9309E030331D
:10501000DBB208997A1CCB55002810D0202A0ED07C
:1050200017000C9900F0C0F9CBB20929EFD90A9A00
:1050300094466344DBB2ECE7002220AB08930B9B61
:10504000049406935B4605930C9B03930E9B4EE6DC
:105050008D4B089303230C9392E50E9D0F9C109E9D
:105060000B9B049406935B4605930C9B0192039360
:105070000023029331E75346BA464F46B1461E001D
:10508000FFF739F98022120694460B9B08930C9B7C
:1050900063440D93FFF7A5FA250008E502230C935E
:1050A000FCE60B9B1B0600D498E00A9B1888B4E42E
:1050B0000A9B1868002806D10B9A10231100994307
:1050C0000B91520573D40B9A6123920600D54123AC
:1050D000DBB220AA0A3B08920A930BE03033DBB222
:1050E00008997A1CCB55002800D1CCE6202A00D1A3
:1050F000C9E617000C9900F057F9CBB20929EDD990
:105100000A9A94466344DBB2EAE70D9B1491169326
:1051100000230F930F9B9C4257DDE41A013C802330
:10512000DB001F43002310930F93FFF74AFB0B95FF
:10513000BB070FD10E9B042B59D99C462A002C1F6C
:105140006444531C0B93494643462020D0470B9A96
:105150009442F6D104244D4B0B9A08930C97089B6C
:10516000013C571C185D49464346D0473A00002C85
:10517000F5D10B9A179B0C9F0432002B01D1FFF73E
:1051800072FB0E99531B8B4201D3FFF76CFB434616
:1051900049462020541CD0470E992200631B8B42A5
:1051A000F5D3FFF760FB00230893FFF775F820ABFA
:1051B0000022089367E620AB002208938FE50A9B44
:1051C0001B68FFF746F9089372E50024A7E72F0054
:1051D000250066E420AA0023089274E60A9B18685A
:1051E0001BE420AB002208933AE70B95E8E40B950B
:1051F000B0E72C00BB0710D10E9B032B0DD99C46AA
:105200002A00EC1E64440894434649462020541C5E
:10521000D047089B2200A342F6D1032308931C4BDE
:1052200022000B932B003D001F00089B0B98511C84
:10523000013B0C910893C05C49464346D047089B0C
:105240000C9A002BF2D13B002F001D00179BE21C93
:10525000002B01D1FFF707FB0E99531B8B4201D3A3
:10526000FFF701FB434649462020541CD0470E99C6
:105270002200631B8B42F5D3FFF7F5FA0B9564E52B
:10528000063B17000C9309E608800010F87F001019
:10529000F47F00100EB4012210B585B007AC08CC25
:1052A00001000094524204480394FEF703FF05B046
:1052B00010BC08BC03B018477D2C001010B5094A7B
:1052C00084B01468002C09D00122009103005242DE
:1052D00003A90548A047012004B010BD00F0A8FFB5
:1052E0000020F9E77C040020892C001001480421EB
:1052F000014B1847A00200201D530010142310B5C5
:105300000100188804331B88984710BD162310B578
:105310000100188802331B88984710BDF0B5C646B7
:1053200000B5002916D0142304000125984618273B
:10533000890046184346216818883B88984701C46D
:10534000431E984140420540A642F3D1280004BCC8
:105350009046F0BD0125F9E7124A936F9B0815D2DC
:105360009066D166002905D0FFE7FFE7FFE7516FA0
:10537000106F704704B580210906C21751400028FC
:1053800000D0C84301F0A0F8002104BDF0B5146EB0
:10539000556E576F166FFFF7E3FF14665566576734
:1053A0001667F0BD000000D0114A936F9B0813D21E
:1053B00010665166002905D0FFE7FFE7FFE7516F50
:1053C000106F704704B5002801D00020C04301F0E1
:1053D0007BF8002104BDC046F0B5146E556E576FC2
:1053E000166FFFF7E5FF1466556657671667F0BD41
:1053F000000000D094464E4A926F9208624601D255
:1054000030E0C046F0B54A4EB56F6D08FCD3346E3F
:10541000756E776F366F00F025F89446444A14662F
:105420005566576716676246F0BDC0469446404AC7
:10543000926F9208624601D258E0C046F0B53C4EE9
:10544000B56F6D08FCD3346E756E776F366F00F0F4
:105450004DF89446364A1466556657671667624695
:10546000F0BDC046002B24DB11D000293EDA00B588
:10547000C943404200D1013100F038F8C9434042ED
:1054800000D10131DB43524200D1013300BD002A7B
:10549000EBD1002801D1002905D00020C90FC90790
:1054A00001D1C043410800B501F006F800220023F5
:1054B00000BD00B500290ADBDB43524200D10133B5
:1054C00000F014F8C943404200D1013100BDC94386
:1054D000404200D10131DB43524200D1013300F0A0
:1054E00005F8DB43524200D1013300BD002923D12E
:1054F000002B18D1002A0CD0BC460D4F38667A66B6
:1055000000210023FFE7FFE7FFE77A6F386F674668
:105510007047002801D00748010000B500F0CCFF1B
:105520000022002300BD02000B0000200021704774
:10553000000000D0FFFFFFFF002B00D0BDE0130CE8
:1055400026D1002AE7D080B4104F39667A66FFE78B
:10555000FFE730B4040C7B6F396F1B0423433B66B9
:10556000FFE7FFE7FFE7C04684B27B6F3D6F1B0498
:1055700023433B66FFE7FFE7C04600232C042D0CC6
:105580007A6F386F00196941B0BC7047000000D0D5
:10559000F0B594460025140E01D112020835140FFF
:1055A00001D112010435940F01D192000235D40FBC
:1055B00001D152000135D40B0134254F7C66254CB6
:1055C0003C660E0C93B2FFE7FFE7FFE73C6F6643D4
:1055D000360C7703BE467343DF0B5B04C01AB94138
:1055E000130C7343DB18C91ACE086643360CB64455
:1055F00093B273431F0F1B01C01AB941130C7343BD
:105600001F0B1B05C01AB941860D8F023E4366432E
:10561000360C092D24DB520A7243801A7703460A9E
:105620006643360C16235B1BDE40DF40BF19644621
:105630006643821B7046043506330100D940A840FA
:10564000C01900D30131A24206D20023F0BD0000F0
:10565000000000D0FFFFFFFF121B0130F3D3F1E782
:1056600009277F1BFE406446A2B27243801A00D213
:105670000139220C7243130C1204821A99410B0057
:105680007046043513370100F940A840801900D353
:105690000131002B02D1A2420AD2F0BD013000D369
:1056A0000131121BFAD2013BF8D1A24200D2F0BD67
:1056B000013000D30131121BF7E7F0B51C0C00D00C
:1056C00080E00CB400251C0A04D11B02160E3343E3
:1056D000120208351C0B04D11B01160F33431201B3
:1056E00004359C0B04D19B00960F33439200023586
:1056F000DC0B02D192185B4101351C009718644104
:105700000134464F7C66464C3C660E0CFFE7FFE7D3
:10571000FFE7C0463C6F6643360C7703BE4697B240
:105720007743C01B00D20139C01B00D201399FB2A0
:105730007743C91BC91B170C77437E04FF0B801BE3
:10574000B941CE086643360C0C2D33DBB644120B40
:105750001F053A431B0B97B27743C01B00D2013998
:105760009FB27743C91B170C77433E043F0C801B45
:10577000B941860D8F023E43664329277F1BFE40B9
:105780000C3D7746AF40BF1930BCA2B2ABB27243FA
:105790007343801A9941220C7243130C1204801A2D
:1057A000994102000B000137001BA941F9D2781E74
:1057B0000021F0BD0C277F1BFE4077467F0BAF40DA
:1057C000FF19E0E700245D1C07D0144F7D663966A1
:1057D000FFE7FFE7FFE7FFE73C6F95B29EB2654347
:1057E0006643401BB141150C1E0C654366433604ED
:1057F0002F0C3E432D04401BB141994204D20200BC
:105800000B0020000021F0BD01D19042F7D3801A97
:10581000994101349942F2D3F6E70000000000D02C
:10582000FFFFFFFF48404140484018B41B4B5B68F6
:10583000FC46019308BD04DF6B5A001018B4174BE7
:105840001B68FC46019308BD00DF755A00109446A2
:10585000134A926F920809D2624618B40F4BDB6864
:10586000FC46019308BD0CDF2D5D00100C4AF0B51D
:10587000146E556E576F166F6246FFF7EEFF084ABB
:105880001466556657671667F0BD18B4034B9B68DE
:10589000FC46019308BD08DFD15B0010D008002052
:1058A000000000D0FFB550404240504059404B40AE
:1058B000594000E0FFB5154F4C00640D03D0BC42C9
:1058C00004D10C0314D80020090D09055C00640DF7
:1058D00003D0BC4204D11C030AD800221B0D1B05B7
:1058E00001264B4009D44B4003D58B4200D1824264
:1058F000FFBD9942FCD19042FFBD0B43DB1803432F
:105900001343F5D0C9434918FFBD0000FF0700004D
:1059100000B5FFF7CFFF804100BDC04600B5FFF7DF
:10592000C1FF01D9002000BD012000BD00B5FFF777
:10593000B9FF804100BD012040054A00121804D87B
:105940005A00121801D8002070470120704700202B
:10595000704700000021002805D17047C11748405A
:10596000401AFAD0C90713B5064B1B6898470CBC00
:10597000441CA2401005120B0349091B09051943D9
:10598000114310BDD00A00201F04000010B54C00C8
:10599000620D8023D218DB00D21A5B057E2A10DD4F
:1059A0009E3A13DACC170903490819435242D140F1
:1059B000640001341532202A05DAD04008436043E0
:1059C00010BD002010BD0846604310BDC80FC018B0
:1059D000013810BD18B4044B5B6AFC46019308BD46
:1059E00024DF595F00100000D0080020132370B599
:1059F0001C78012C0CD015DD0C48FFF787FC0C4DF2
:105A000001008022280000F06FFB022C0BD070BD3B
:105A1000074D084A29002B00803104C38B42FCD17A
:105A2000AA64F4E7024D034AAA64F0E75344000075
:105A3000D0080020395A001007B5604601880A0ACC
:105A40000230DF2AFAD1C9B2820804D30288408822
:105A50000004104300E00068014A5050039007BD65
:105A6000D00800200FB403BC0CBCF0B50124E4073F
:105A7000634000E0F0B50C0DCF0F661E3605891BA4
:105A8000640503D3C943404200D30131640D03D000
:105A9000661CF60A07D0E41B00207F00791C8907EA
:105AA0008912803C24031D0DDF0F6E1E36059B1BE3
:105AB0006D0503D3DB43524200D301336D0D03D098
:105AC0006E1CF60A07D0ED1B00227F007B1C9B0793
:105AD0009B12803D2D032F1B661B58D4A446202EFD
